:020000040800F2
:100000000000032021060008092100080B21000838
:100010000D2100080F210008112100080000000038
:10002000000000000000000000000000515D00081A
:100030001321000800000000E15D00086956000877
:1000400071060008710600087106000871060008B4
:1000500071060008710600087106000871060008A4
:100060007106000871060008710600087106000894
:100070007106000871060008710600087106000884
:100080007106000871060008710600087106000874
:100090007106000871060008710600087106000864
:1000A0007106000871060008710600087106000854
:1000B0007106000871060008710600087106000844
:1000C0007106000871060008710600087106000834
:1000D0007106000871060008710600087106000824
:1000E0007106000871060008710600087106000814
:1000F0007106000871060008710600087106000804
:1001000071060008710600087106000871060008F3
:100110007106000871060008152100087106000824
:1001200071060008710600087106000871060008D3
:1001300071060008710600087106000871060008C3
:1001400071060008710600087106000871060008B3
:1001500071060008710600087106000871060008A3
:100160007106000871060008710600087106000893
:100170007106000871060008710600080000000002
:100180007106000871060008710600087106000873
:100190007106000871060008710600087106000863
:0C01A00021210008710600082D21000834
:1001B00010B5054C237833B9044B13B10448AFF3A1
:1001C00000800123237010BD800300200000000088
:1001D0006813020808B5034B1BB103490348AFF38A
:1001E000008008BD0000000084030020681302089E
:1001F00001F0FF01102A2BDB10F0070F08D010F8D8
:10020000013B013A8B422DD010F0070F42B3F6D1DB
:10021000F0B441EA012141EA014122F007047FF0F4
:1002200000070023F0E80256083C85EA010586EA4B
:10023000010685FA47F5A3FA87F586FA47F6A5FA87
:1002400087F68EB9EED1F0BC01F0FF0102F0070293
:1002500032B110F8013B013A83EA010313B1F8D13E
:100260000020704701387047002D06BF354603381F
:10027000073815F0010F07D1013015F4807F02BF58
:10028000013015F4C03F0130F0BC0138704700BFA9
:100290007BB972B90029BEBF00204FF0004106E0D3
:1002A00008BF00281CBF6FF000414FF0FF3000F086
:1002B000B5B9ADF1080C6DE904CE002909DB002BBE
:1002C0001ADB00F04DF8DDF804E0DDE9022304B0AC
:1002D0007047404261EB4101002B1BDB00F040F80E
:1002E000DDF804E0DDE9022304B0404261EB4101A6
:1002F000524263EB43037047524263EB430300F007
:100300002FF8DDF804E0DDE9022304B0404261EBA0
:1003100041017047524263EB430300F021F8DDF8DE
:1003200004E0DDE9022304B0524263EB430370476B
:1003300053B94AB9002908BF00281CBF4FF0FF314C
:100340004FF0FF3000F06AB9ADF1080C6DE904CE52
:1003500000F006F8DDF804E0DDE9022304B07047A0
:100360002DE9F047089D0C46002B4ED194468C4554
:100370008646B2FA82F262D94AB1C2F120039140B4
:1003800020FA03F30CFA02FC194300FA02FE4FEACA
:100390001C471FFA8CF6B1FBF7F44FEA1E4307FB2C
:1003A000141143EA014304FB06F199420AD91CEBFC
:1003B000030304F1FF3080F01281994240F20F8173
:1003C000023C6344591A1FFA8EF3B1FBF7F007FBA6
:1003D000101143EA014300FB06F69E420AD91CEBCA
:1003E000030300F1FF3180F0FC809E4240F2F9806F
:1003F000634402389B1B40EA044000211DB1D340F6
:100400000022C5E90032BDE8F0878B4205D90DB165
:10041000C5E9000100210846F5E7B3FA83F1002998
:1004200046D1A34202D39042C0F0F080861A64EB1A
:1004300003030120002DE6D0C5E90063E3E7002AAD
:1004400040F09080A1EB0C044FEA1C481FFA8CF797
:100450000121B4FBF8F64FEA1E4308FB164443EAB9
:10046000044307FB06F0984208D91CEB030306F18E
:10047000FF3402D2984200F2CD8026461C1A1FFAA1
:100480008EF3B4FBF8F008FB104443EA044300FB8E
:1004900007F79F4208D91CEB030300F1FF3402D297
:1004A0009F4200F2B0802046DB1B40EA0640A5E7F1
:1004B000C1F120068B4022FA06F71F4320FA06FC02
:1004C00004FA01F343EA0C03F44000FA01F8380C93
:1004D0004FEA1349B4FBF0FE1FFA87FC00FB1E44F1
:1004E00049EA04440EFB0CF9A14502FA01F20AD9CB
:1004F0003C190EF1FF3A80F08480A14540F28180E2
:10050000AEF1020E3C44A4EB09041FFA83F9B4FBDC
:10051000F0F300FB134449EA044403FB0CFCA4453C
:1005200007D93C1903F1FF3067D2A44565D9023BD6
:100530003C4443EA0E40A0FB0293A4EB0C049C4213
:10054000CE469C4651D34ED055B1B8EB0E0364EB6A
:100550000C0404FA06F6CB401E43CC40C5E9006407
:10056000002150E7C2F1200320FA03F10CFA02FC4B
:1005700024FA03F394400C434FEA1C4800FA02FEAD
:100580001FFA8CF7B3FBF8F008FB1031230C43EA99
:10059000014300FB07F1994208D91CEB030300F16A
:1005A000FF362CD299422AD9023863445B1AA4B28E
:1005B000B3FBF8F108FB113344EA034401FB07F3F2
:1005C000A34208D91CEB040401F1FF3613D2A34265
:1005D00011D902396444E41A41EA004139E704467A
:1005E000F0E6084606E7C845AED2B9EB020E63EB6B
:1005F000070C0138A8E73146EDE7034699E7304696
:10060000D4E7D6467FE7634402384DE706462346E3
:1006100008460FE7023E634430E700BF704700BF63
:10062000DFF834D0002103E00C4B5B584350043119
:100630000B480C4B42189A42F6D30B4A02E00023B7
:1006400042F8043B094B9A42F9D302F06BFD20F0CB
:100650001BF901F041F87047000003202C680408E2
:100660000000002064010020800300209842012047
:10067000FEE7704708B500F0ABFDBDE8084000F0AC
:100680002FBD00F0A7BD704710B5042104461EF031
:1006900004FF204610BD000038B50C4B0C4C1880F0
:1006A0000C4B822019806368984740F611039842EA
:1006B0000AD1094D23682C60822098472B6882203C
:1006C000DB689847002038BD0120FCE7A603002026
:1006D0004C000020A4030020A80300204FF4A071C8
:1006E000F020FFF7D9BF0000F7B5334D2B68044663
:1006F0001B6982209847208000284AD02B680DF182
:1007000006025B6901A982209847BDF8063040F6D1
:10071000746293423FD9ADF80620BDF80630D21A74
:1007200092B20A2A3DD90B23B2FBF3F2234B1B886A
:100730009A4201D9013B9AB2BDF8043040F6B83173
:100740008B4230D8C3F571630E339BB20F21B3FBDC
:10075000F1F31B4909888B4201D901398BB2194E3B
:10076000194D30682F68834281B28CBF591AC91A5B
:10077000B8B2BA428CBF101A801A89B280B2014452
:100780000529C8BF33603368C8BF2A6063802B68FF
:10079000A38003B0F0BDB32B9CBFB423ADF80630EB
:1007A000BBE70022C8E7C3F56D6308339BB20E2B8D
:1007B000CCD80023D3E700BFA8030020A403002067
:1007C000A6030020A00300209C03002037B5684644
:1007D0000D461446FFF788FFBDF8000030B1BDF8A4
:1007E00002302B60BDF804302360012003B030BD1F
:1007F000032821D8DFE800F0020B12190F4B1A680A
:10080000B2FA82F2520904210D4802F021BF0B4BCB
:100810005A68B2FA82F252090821F5E7074B9A6842
:10082000B2FA82F252091021EEE7044BDA68B2FA0A
:1008300082F252092021E7E7704700BFAC03002095
:1008400000100240032821D8DFE800F0020B121943
:100850000F4B1A68003A18BF012204210D4802F01C
:10086000F7BE0B4B5A68003A18BF01220821F5E782
:10087000074B9A68003A18BF01221021EEE7044B9B
:10088000DA68003A18BF01222021E7E7704700BF6D
:10089000AC0300200010024003280DD8DFE800F070
:1008A0000206080A0421054802F0D7BE0821FAE72B
:1008B0001021F8E72021F6E7704700BF0010024042
:1008C00008B5032811D8DFE800F0020A0C0E042155
:1008D000074802F0B7FE431E5842584108BD0821A0
:1008E000F6E71021F4E72021F2E70020F3E700BF4C
:1008F0000010024070B5084D00240126E0B2FFF759
:10090000DFFF18B12B68012B18BF2E600134052CB6
:1009100005F10405F2D170BDAC030020012380F87D
:10092000781080F87930704700207047034B41649D
:10093000003918BF01211970704700BF57350120D9
:1009400000207047836B0BB10846184770474FF67D
:10095000FF707047406803689B691847704770478D
:100960007047000010B5044600F042FD23680349BB
:10097000D3F88C302046BDE810401847000000D066
:1009800008B503680446D3F88030984723682046AA
:100990009B6F984700F0ECF8236820461B6F984740
:1009A000292001F0D1F800F0E3F8236820461B6FFE
:1009B0009847F8E710B5044608F02EFA2368204659
:1009C000D3F8AC30BDE81040184700F0F3BC00F09D
:1009D000F7BC00F02BBD00F0C9BC00F03BBD00F03F
:1009E00043BD00F0CDBC07F083BC10B57C210446AC
:1009F0001EF053FD204610BD10B590F8341090F84D
:100A000078400C4B8C421A7809D03AB90A4A0B4903
:100A10001488088810800C8001221A7010BD002AEA
:100A2000FCD0054A05491488088810800C800022F3
:100A3000F3E700BF503501204C3501204E35012031
:100A400070B50D46194635B9094B0A4A0A4840F2B5
:100A5000D2211FF069FCC0E90F52084B003A18BFC1
:100A600001221A700368BDE87040D3F88C30184733
:100A7000D8130208101402085E140208563501202B
:100A800008B5094B1B888B4203D8084B1B8893423F
:100A900005D9074B074A08489E211FF045FC074B24
:100AA0001980074B1A8008BD4C3501204E350120B6
:100AB000A3140208061502085E140208523501202C
:100AC00054350120034690F87A0018B1586803683D
:100AD0001B68184770470000012108B5002208462E
:100AE00004F04FFE0A4B186028B90A4B0A4A282125
:100AF0000A481FF019FC00220421012004F0E0FE46
:100B0000074B186018B9074B034A2C21F0E708BDC2
:100B1000C0030020241602086D1602089C16020865
:100B2000BC030020FF160208024B4FF0FF3118688B
:100B300004F071BEC0030020014B186804F097BE9A
:100B4000C0030020024B0021186804F064BE00BFFF
:100B5000C0030020FFF7F0BF0348044900680023EA
:100B60001A4604F0E8BE00BFBC03002004000020C9
:100B700013B5084C00231A4601A9206804F00CFFA5
:100B800020684FF0FF33002201A904F005FF02B0F6
:100B900010BD00BFBC03002003685B6C1847012038
:100BA000704703689B6A1847FEE740F2EF307047D2
:100BB000054B0360054B4FF08062C3F88820BFF3FC
:100BC0004F8FBFF36F8F7047B418020800E100E049
:100BD00010B504464FF45A61FFF7EAFF20461EF0B5
:100BE0005CFC204610BD000082B0002301930E4B38
:100BF0001A6B42F400021A631A6B02F400020192AB
:100C0000019A1A6942F400021A611A6922F4000278
:100C10001A61064B064A1A61064A5A61064B4FF0A2
:100C200080629A6002B0704700380240AC26002013
:100C3000890E0008A90B000800E100E008B50A28A9
:100C400009D8DFE800F006100E0808080810101098
:100C50001000022008BD054B054A064890211FF0F0
:100C600063FB0020F6E70120F4E700BF411702080C
:100C70005C170208A717020838B50C46887FFFF7F3
:100C8000DDFFA58AE28A164B2169586342EA0542D4
:100C90005A64628BD963521B1A642568082D0ED1E1
:100CA0009A611A615862207F0E4A42EA0062DA6154
:100CB000E2681A620C4A5961D9601A6038BD002294
:100CC000D8611A61E1680A0A480902F4784200F41E
:100CD000FC600243C1F3C4010A439A63034AECE790
:100CE00000B00240090001000123020001230300BB
:100CF00008B50B280BD8DFE800F00612100A0A0A24
:100D00000A0808080808022008BD0520FCE7054B72
:100D1000054A06486F211FF007FB0020F4E7012079
:100D2000F2E700BF4117020808180208A7170208D7
:100D30002DE9F04191F81D800C464046FFF7D8FFA1
:100D4000A77F05463846FFF7D3FF06463846FFF72C
:100D500075FFA18A628B444B521A1A649A61228BE6
:100D6000521A1A61E28A586342EA01425A642169BE
:100D70006268D963DA602068802828D0227F0FD883
:100D8000202867D0402865D004281AD0364B45EA81
:100D9000026545F40035B845DD6161D0334A44E071
:100DA000B0F5807F04D0B0F5007FEFD1304800E08F
:100DB000304840EA0262DA61E2681A625E625961B2
:100DC00032E045EA026242F40032DA61F6E7A068F6
:100DD000021DDA62227F45EA026545F40035DD61D5
:100DE0005E625961017841B1012921D0224B234A29
:100DF00023484FF48D711FF097FADA69418822F485
:100E00007F42013922F0100242EA0122DA61012117
:100E1000154BDA6942F02002DA61DA699206FCD4F5
:100E200010229A600029B9D0164A1A60BDE8F081F4
:100E3000B2F1FF01DA69408822F47F4200F1FF300D
:100E400022F0100242EA002242F0100218BF0121F3
:100E5000DA61DDE745EA0262034B42F40032B4E7AF
:100E600042F20132E1E700BF00B00240012301007D
:100E7000090002000A000200521802086C18020859
:100E8000A717020801230200024B1B685868036879
:100E90005B6918475835012070B5044625460A4B52
:100EA0000C30002660602672667245F8203B602296
:100EB000294608F009F904F55A63EE6024359D428D
:100EC000FBD1204670BD00BFB4180208034B1A685E
:100ED000D207FCD423229A60704700BF00B00240C2
:100EE0007047000030B50F4C2568ED07FCD4232572
:100EF0000904A56041F001010225FF2B65636164CF
:100F0000E0630AD00849656241EA0363E361074B85
:100F100022626061E060236030BDE561039BA363F2
:100F2000034BF8E700B00240090001000100020095
:100F30000100030030B50E4C2568ED07FCD42325D5
:100F40001204A56042F001020225FF2B6563626472
:100F5000E063E16008D01B0643F00213E361054B38
:100F600065626061236030BD034BE3610123F9E7F3
:100F700000B0024001000200020002FF30B50B4C3D
:100F80002568ED07FCD4232512041B06A56043F455
:100F90000033022542F0010265636264E063E160B0
:100FA000E361034B65626061236030BD00B00240C5
:100FB00001000200012070470C2070470C2303FB46
:100FC0000100083070470C2303FB01000830704714
:100FD0000120704741F21800704741F2180303FBEB
:100FE00001000830704741F2180303FB010008308C
:100FF0007047012070471020704700EB0110083047
:10100000704700EB011008307047084601F080BAC5
:1010100010B5034B0360044606F017FC204610BDD4
:101020006C19020810B50446FFF7F2FF20461421A0
:101030001EF033FA204610BD10B5034B0360044682
:1010400006F003FC204610BD3819020810B504460E
:10105000FFF7F2FF20464FF481511EF01EFA2046A2
:1010600010BD000010B5034B0360044606F0EDFB15
:10107000204610BD0419020810B50446FFF7F2FF20
:10108000204618211EF009FA204610BD10B5094B64
:101090000360044600F582500C30FFF7B9FF04F1FD
:1010A0002C00FFF7C9FF04F11400FFF7DBFF204617
:1010B00010BD00BFA019020808B50248FFF7E6FFFF
:1010C00008BD00BF9412002010B50446FFF7DEFFF4
:1010D00020464FF48E511EF0E0F9204610BD00006E
:1010E0002DE9F34101F096F8054601F097F8002448
:1010F000014623462846224600940FF091F9274BDB
:10110000274A1A60204601F0B7FC264D264B274A95
:1011100027489A600FF0ECF82B68BFF35B8FDB0772
:1011200036D428461EF0BBF990B3224C224B2360E4
:1011300004F12C0808F5815707F1180604F1140092
:101140006060C4F80880E760266106F07FFB1B4BF7
:101150006361404606F07AFB194BE362384606F0BD
:1011600075FB04F58053174ADA6404F5835001F0E7
:10117000F9FC224604F58351304601F0E9FC304683
:1011800001F0C6F910481FF0EDF828461EF093F95B
:101190000E4802B0BDE8F041FFF7E4BBBC350120CA
:1011A000400400209012002060040020440400202D
:1011B0000800002094120020A01902080419020857
:1011C000381902086C190208B9100008C40300207D
:1011D000704700000148FFF7D3BB00BFC4030020E5
:1011E00070B5244E244C254D254B23603046FFF727
:1011F00053FE284614F01AFA22480DF0CFF9224B7C
:101200002248DC6000224FF48071C3E912122049A9
:101210001A86C3E91A121F4999671F4983F8582093
:101220000B60F02101801D485A6601801C4883F83C
:1012300070204FF4A071C3E90422C3E90622C3E978
:101240000822C3E90A22C3E90E22C3E91022C3E936
:101250001422C3E917225A67C3E9016501801148C6
:10126000018011490A70012283F834200F4A1A6064
:1012700070BD00BFEC0400208C1200206004002030
:10128000C813020844040020C40300204C35012088
:1012900001000001000001015835012052350120F4
:1012A0004E350120543501205035012054150208D7
:1012B0000148FFF77DBC00BFEC0400200020704710
:1012C00081807047C18070470181704741817047BC
:1012D0007047704770477047704710B4C488036800
:1012E000121B84885B6D091B12B25DF8044B09B2B6
:1012F00018474FF6FF7383814FF0FF330362136883
:10130000C36110607047002070478B888380012084
:101310007047704780F82610704790F82600704795
:1013200010B50022B1F90840B1F90A1002804280DC
:101330008480C18010BD0022028042808280C280F1
:1013400070470177704780ED080A704780F82410D5
:10135000704780F82510704701207047983070471B
:101360008C3070478430704770470000034B9022E8
:1013700083F85A2383F85823704700BF00E100E048
:10138000094A0A49D3680A48C3F30A03013B9BB2DE
:101390000B801169C1F30A01013901801364536B99
:1013A00043F0010353637047006801405624002056
:1013B00054240020014BD3F8AC0070470068014072
:1013C000024B0122C3F8AC105A627047006801401A
:1013D0007047704710B52C2104461EF05EF8204679
:1013E00010BD10B5BC2104461EF057F8204610BDB4
:1013F00070B5044606F0D1FF23685D6E0BF058FF10
:1014000001462046A8472368054AD3F8885020465D
:10141000AC460023BDE87040A2F51631604700BF1E
:1014200000B004D006F0A0BF06F0AABF06F066BF69
:1014300007F0C7B890F8252012B103685B69184718
:10144000704790F825201AB190F8242002B1186056
:1014500070470000034B4FF080629A604FF080723B
:101460009A60704700E100E0084B4FF08062C3F8DB
:101470008820BFF34F8FBFF36F8F4FF08072C3F898
:101480008820BFF34F8FBFF36F8F704700E100E0FC
:1014900070B50023124E8380124B0360336893F8BB
:1014A000582005460AB1D86C00B998680368DB6A11
:1014B00098473368B0FA80F4D86C640930B1036897
:1014C000DB6A9847002808BF44F001042CB9064B9A
:1014D000064A07482C211EF027FF284670BD00BF92
:1014E00058350120B01A0208AC1902080A1A02087D
:1014F000431A020870B5244E3568BFF35B8F15F0B0
:1015000001053FD130461DF0CAFF00283AD01F4CDC
:101510001F4B256104F13400C4E90035C4E90255CC
:10152000E584A562A5850DF098FA04F1580009F04C
:10153000FFFE184BA3652046174B40F8843BFFF78E
:10154000A7FF164BC4F884302433C4F88C306423CE
:10155000C4E928350023C4F8AC30C4F8B030C4F86E
:10156000B430C4F8B8300E480E4BC4F89050C4F8EC
:101570009C50C4F8A850C4F898301EF0F3FE3046D2
:101580001DF099FF014870BD582400205C24002004
:101590002C260208D01A0208481B0208E02502087F
:1015A00069130008C025020810B5144C236823B342
:1015B000134B144A1B6C11888B4213D1124B1988A0
:1015C00002F058FE226892F86A30013382F86A30DD
:1015D000FFF7C2FA206807F01FFCBDE810400020AA
:1015E000FFF706B902F046FE206803681B6A9847B9
:1015F000BDE810400020FFF725B910BD5835012087
:1016000000680140562400205424002007B5064BF2
:10161000ADF806001B68054801220DF1060103F034
:10162000C9FB03B05DF804FB0C0000205825002026
:1016300008B5642004F099F8FBE7000030B595B0D8
:10164000102200210AA81FF076F81422002103A816
:101650001FF071F800241E4B01941A6C42F0805266
:101660001A641B6C03F080530193019B194B029485
:101670001A6842F440421A601B6803F44043029324
:101680000122029B4FF48033CDE9082302254FF459
:1016900080030821CDE90E534FF4B473CDE9101344
:1016A00008A804231393129502F03CFE02F000FEFA
:1016B0000F23CDE903354FF4A0504FF48053CDE90B
:1016C0000603052103A8059403F008F815B030BD02
:1016D000003802400070004080B59AB001F030FD43
:1016E000FFF7ACFF142200210DA800241FF023F8FF
:1016F000C04B00941A6BC048C04D42F010021A63F0
:101700001A6B02F010020092009A01941A6B42F0D8
:1017100020021A631A6B02F020020192019A0294CD
:101720001A6B42F080021A631A6B02F08002029276
:10173000029A03941A6B42F004021A631A6B02F0C5
:1017400004020392039A04941A6B42F001021A6392
:101750001A6B02F001020492049A05941A6B42F08B
:1017600002021A631A6B02F002020592059A0694AD
:101770001A6B42F040021A631A6B02F040020692A2
:10178000069A07941A6B42F008021A631B6B03F067
:101790000803079322463C21079B01F059FF984814
:1017A0002246042101F054FF224696484FF440514E
:1017B00001F04EFF01264FF003083C238E48CDF880
:1017C00040800DA902274FF00409CDE90D360F9492
:1017D00001F054FE8A480F940DA9CDE90D9610979B
:1017E00001F04CFE0DA94FF440538648CDE90D366B
:1017F000CDE90F4701F042FE8348844B036001F0BE
:1018000031FD834A834B2C62C5E9002328464FF4FF
:101810008043C5E90434C5E90244C5E9064402F041
:1018200025F91021284602F069FB2146284602F0DE
:1018300084FB7948794984624FF48273C0E90013CC
:101840004FF400751823C0E906530A23744DC36290
:10185000C0E90244C0E90444C0E9084403F04EFA78
:10186000704B0D974FF0100CC5E900364023C5E9C9
:1018700004C34FF4C073C5E906344FF40063C5E9EF
:1018800008344FF40053AB620DA907232846CDE975
:101890000E39CDE910384FF0080AC5E90249CDE903
:1018A000127703F00FF94FF6FF7209A92846CDE928
:1018B0000AA6089409960C9403F024F9304601F026
:1018C0006BFC4FF6FF7209A92846CDE9097ACDE9EC
:1018D0000B6403F017F94FF6FF7209A92846CDE90A
:1018E000098ACDE90B9403F00DF94FF40C730893BA
:1018F000089B0C934FF6FF7209A92846CDE9099A77
:101900000B9603F0FFF840F26A51284603F018F9ED
:10191000342221460DEB02001EF00DFF424D434BD9
:101920002C61C5E900340923C5E905361D2340F2C1
:101930000D1EC5E9073840F24313C5E909E32846FF
:1019400040F2471340F21718C5E90B83C5E902447A
:10195000AC8685F8364002F095FBFF21F022CDE9F8
:1019600012144FF4806905214FF4A073CDE90E24C1
:10197000CDE91491CDE916420DA922462846CDE9BC
:1019800010372B4D18930D94ADF864408DF86640D8
:1019900002F043FC274B2B601B6898472B68264DB1
:1019A000DB689847254B2846C5E90034C5E9027431
:1019B000C5E90A47C5E90C4401F064FC31462846F4
:1019C00001F018FDFEF756FEFEF753FE03F05AFE37
:1019D0001B4A1C48214603F081FE1B4B1B4A186022
:1019E00021461B4803F07AFE1A4B186003F05CFE98
:1019F000FEE700BF003802400010024058260020D9
:101A000000080240000C0240EC260020003002409A
:101A1000005C0040A08601005825002000500140D5
:101A200024250020400100A0B025002000680140CE
:101A30001825002014000020AC26002000B0024031
:101A4000C81B02083116000820250020A41B02082C
:101A5000830600081C250020704770477FB5094B9E
:101A60008DF817201B6802930DF1170201230092D5
:101A700001930A460146044802F0A0F807B05DF859
:101A800004FB00BF10000020582600207FB5002373
:101A90008DF81730084B1B6802930A4601230DF19D
:101AA0001701009101930146044802F017F99DF8CF
:101AB000170007B05DF804FB100000205826002036
:101AC0001FB5084C24680092CDE901340A46012371
:101AD0000146054802F002F9003818BF012004B0A1
:101AE00010BD00BF100000205826002001F054BB9C
:101AF00010B5064C00222046042101F0A9FD204625
:101B00000122BDE81040042101F0A2BD00080240FE
:101B100038B50B4D044601220A484FF4005101F03C
:101B200097FD00220421284601F092FD2046FFF790
:101B30006DFD28460122BDE83840042101F088BD32
:101B400000080240000C024038B50B4D044600224C
:101B50000A484FF4005101F07BFD00220421284681
:101B600001F076FD2046FFF751FD28460122BDE831
:101B70003840042101F06CBD00080240000C024016
:101B8000F7B5144E144F05460C463046002204218A
:101B900001F05EFD00224FF40051384601F058FD7F
:101BA0002846FFF733FD0D4B0D481B68224601A95F
:101BB00003F0ACFA384601224FF40051019C01F0C9
:101BC00047FD30460122042101F042FD204603B0CA
:101BD000F0BD00BF00080240000C02400C000020D5
:101BE0005825002001F0D8BA0268034B9A4201D16F
:101BF00001F0C0BA704700BF0010004070470000FD
:101C000082B00E4B00220092596C41F4804159641D
:101C1000596C01F48041009100990192196C41F0D6
:101C2000805119641B6C03F080530193019B0F21B9
:101C30006FF0010002B001F0D5BA00BF00380240D9
:101C40000268094B9A4282B00BD100230193074BE3
:101C50001A6B42F480521A631B6B03F48053019396
:101C6000019B02B0704700BF0030024000380240C4
:101C700007B50F4B02689A4216D10022A3F5F04334
:101C80000192196B41F4000119631B6B03F400030B
:101C9000019305215A20019B01F0A4FA5A2003B0B8
:101CA0005DF804EB01F0D0BA03B05DF804FB00BFAF
:101CB00000B002402DE9F043044689B0142200210F
:101CC00003A81EF038FD2268244B9A4243D1244CCD
:101CD000244800250095236B43F004032363236B02
:101CE00003F004030093009B0195236B43F0010371
:101CF0002363236B03F001030193019B4FF012094F
:101D00004FF400734FF001080327042603A9CDE91F
:101D10000339CDE90587079601F0B0FB4FF48073D6
:101D20001148079603A9CDE90339CDE9058701F0EC
:101D3000A5FB0295236C43F400032364236C03F496
:101D400000030293029B236A43F400032362236A85
:101D500023F40003236209B0BDE8F083005C004077
:101D6000003802400008024000000240F0B599B07F
:101D700004461422002107A81EF0DDFC30220DEBE2
:101D8000020000211EF0D7FC22685E4B9A4240F010
:101D9000B78008230C93C0231093042312930CA83C
:101DA0004FF40033159302F061FD08B1FFF726FFF1
:101DB000554B5648002400945A6C42F080625A6495
:101DC0005A6C02F080620092009A01941A6B42F001
:101DD00020021A631A6B02F020020192019A029407
:101DE0001A6B42F001021A631A6B02F001020292AE
:101DF000029A03941A6B42F002021A631A6B02F001
:101E000002020392039A04941A6B42F040021A638E
:101E10001A6B02F040020492049A05941A6B42F085
:101E200004021A631A6B02F004020592059A0694E2
:101E30001A6B42F008021A631B6B03F00803069347
:101E400002250E26069B0B964FF4806307A9CDE969
:101E50000735CDE9094501F011FB41F658032C483F
:101E60000B9607A9CDE907350927CDE9094501F00A
:101E700005FB032327480B9707A9CDE90735CDE9D3
:101E8000094501F0FBFA4FF4706322480B9607A94D
:101E9000CDE90735CDE9094501F0F0FA4FF40C63BF
:101EA0001D480B9607A9CDE90735CDE9094501F095
:101EB000E5FAC02319480B9607A9CDE90735CDE906
:101EC000094501F0DBFA082315480B9607A9CDE96F
:101ED0000735CDE9094501F0D1FA4FF4A0530E487A
:101EE0000B9707A9CDE90735CDE9094501F0C6FAF9
:101EF00058202246052101F075F9582001F0A4F977
:101F000019B0F0BD006801400038024000140240E2
:101F10000000024000040240001802400008024095
:101F2000000C024010B5044688B01422002103A81A
:101F30001EF001FC2268144B9A4223D103F568433A
:101F4000002101915A6C114842F480125A645A6C73
:101F500002F480120192019A02911A6B42F020025F
:101F60001A631B6B03F020030293029B4FF4607211
:101F700002230321CDE903230523CDE9061303A999
:101F800001F07CFA08B010BD00500140001402407E
:101F90002DE9F04186B0002303932B4B1C68002CE5
:101FA0004FD14FF00108C3F80080284B00949A6B82
:101FB000274842EA08029A639B6B03EA08030093EE
:101FC000022703260C25009B01A94FF63F03CDE90C
:101FD0000137CDE9046501F051FA1E48059501A9C4
:101FE000CDE90187CDE9034601F048FA48F2331301
:101FF0001948059501A9CDE90137CDE9034601F05E
:102000003DFA4FF683731548059501A9CDE90137CF
:10201000CDE9034601F032FA4CF2037310480595FE
:1020200001A9CDE90137CDE9034601F027FA602384
:102030000C48059501A9CDE90137CDE9034601F02A
:102040001DFA06B0BDE8F081F426002000380240F9
:102050000014024000080240001802400010024034
:10206000000C02400004024070B588B000230293C7
:10207000204B1A6C42F010021A641B6C03F0100320
:102080000293054601A903A8029B02F0D1FB069B1F
:102090004BBB02F0BDFB184E184B336040F2E733E8
:1020A000F360174BB0FBF3F3013B73603046002342
:1020B0003361B360B36103F00DFA044680B9304672
:1020C00003F0CAF8044658B9362001F0BDF80F2DC8
:1020D0000DD822462946362001F084F8094B1D60B0
:1020E000204608B070BD02F093FB4000D3E7012406
:1020F000F6E700BF00380240F8260020001000403C
:1021000040420F007C0000207047FEE7FEE7FEE73C
:10211000FEE77047014803F0DDB800BFF826002055
:10212000014802F01DB800BFB0250020014801F0B1
:10213000D7B800BFAC2600200120704708B51EF0BC
:102140009DFB162303604FF0FF3008BD08B51EF05D
:1021500095FB16230360FEE770B50D4614460E4648
:10216000731B9C4201DC204670BDAFF3008006F873
:10217000010BF5E770B50D4614460E46731B9C42E5
:1021800001DC204670BD16F8010BAFF30080F5E7C7
:102190004FF0FF3070474FF400534B600020704702
:1021A00001207047002070470A4A116808B50346AD
:1021B00009B9094911601068694603448B4206D980
:1021C0001EF05CFB0C2303604FF0FF3008BD136072
:1021D000FCE700BF4027002098420120704710B55F
:1021E000042104461DF059F9204610BD012908B507
:1021F00006D0022908D059B900F07CFC006808BD5F
:1022000000F078FC4068FAE700F074FC8068F6E7BC
:102210000020F4E700487047001C020801207047C6
:1022200013B5002451B1036801948DF8034001AA4D
:102230009C680DF10303A04702B010BD0846FBE700
:10224000C0897047008A7047C0887047808870478F
:10225000807A00F07F007047807AC00970470020C4
:10226000704700009FED010A704700BF00000000AA
:102270007047704700F598730868496803C3704752
:10228000704770474160704770470000064BC0F8C8
:102290004C310023C0F8503100F5A273C0F848015A
:1022A000C0F84031704700BF4D230008012303727E
:1022B00070477047704710B4C268416854100346B5
:1022C00001EB6200D20748BF0A599B685DF8044BD6
:1022D00048BFD35818470346406830B19A681AB9C6
:1022E000D86800F0010070470120704710B50C213C
:1022F00004461DF0D2F8204610BD10B5102104464A
:102300001DF0CBF8204610BD10B54FF4AE71044659
:102310001DF0C3F8204610BD10B50AF0C9FF0368D0
:10232000BDE81040DB6B184710B50446D0F84001FB
:1023300058B10368DB68984738B1D4F840010368A6
:102340009B6898470023C4F8403110BD2DE9F14F38
:10235000D0E9556A0746B06803681B6A984741F29E
:102360001703984205D8444B444AA32144481DF022
:10237000DBFF706803681B6A98470F2803D8414B3E
:102380003E4AA421F2E7F06803681B6A98470B28CD
:1023900003D83D4B394AA521E8E70AF089FFDFF869
:1023A000F09004300AF0C2FFD9F8000010B10368C1
:1023B000DB689847D9F8000010B103681B6898479C
:1023C000DFF8D080D8F8000010B103685B69984747
:1023D000D7F83C0110B103685B689847D8F8000053
:1023E00010B103681B689847D7F83C0110B1036827
:1023F0009B689847F068036800215B6A98474FF034
:10240000000B224BC0F804B0044680F808B003600B
:10241000B068036859465B6A9847054600F0D6FBEA
:102420007068036859465B6A98472946064600F07B
:10243000ABFB331DC7F83C61C9F80040C8F8005039
:10244000CAF800302B68C6F808A02846DB68EE639F
:102450009847336830461B689847214628460CF059
:10246000EBFF236820461B69984723685B69204679
:1024700001B0BDE8F04F1847141C0208A21C020866
:10248000741D0208BB1D02085E1E0208781F0208A8
:10249000A03501209C350120044B1B6893F858207F
:1024A0000AB1D86C00B99868704700BF5835012050
:1024B00070B504460D4616460BF006F8104A146037
:1024C000104A2260104A0023C4E95123C4E953335F
:1024D000C4E94F330D4B1868036801219B68C4E9B8
:1024E00055659847FFF7D8FF14F0F3FEFFF7D4FFC8
:1024F00014F06AFFFFF7D0FF14F072FF204670BDA2
:10250000AC350120241F02080C1F02085835012099
:10251000064BC0F84C310023C0F8503100F5A273CF
:10252000C0F84801C0F84031704700BF4D23000893
:10253000406A7047806A704770478B88C0690A6834
:10254000DB0A50F823001044704710B50446BAB1B6
:10255000107B68B1537BD27A1B0203F4E0631A4309
:10256000236A03EB82031A888A4202D193F902009C
:1025700010BD05D8013880B204330028F3D1F7E745
:102580000020F5E710B52C2104461CF086FF2046FC
:1025900010BD000030B58BB00446BDF86050089502
:1025A000BDF85C5007959DF8505006959DF84C502D
:1025B00005959DF8485004959DF8445003959DF865
:1025C000405002959DF83C500195BDF8385000955B
:1025D0000CF000FB064B2360159BE361169B236206
:1025E000199B63621A9BA36220460BB030BD00BFEB
:1025F0009C1F0208704770477047704770477047CC
:1026000010B5034B0360044609F002FE204610BDDE
:102610000420020810B5064B0360044609F0F8FDDB
:10262000204641F218011CF038FF204610BD00BFC3
:102630000420020870B5036804461B6B15469847D2
:102640002368294620465B6BBDE87040184770B58B
:1026500004461D46BDF91060FFF7ECFF23682946CC
:1026600020469B6B9847236831462046DB6BBDE8CC
:1026700070401847094A02604FF48071002281843B
:10268000FF21C0E90122C0E90322C0E90522C0E917
:10269000072280F826108262704700BF20280208B7
:1026A0002DE9F04F044687B0274600250CF018FDB1
:1026B000614BE56347F8403B04F16C0A3846FFF78D
:1026C000D9FF04F198095046FFF7D4FFDFF8748171
:1026D000484608F0B7F804F1E00304F1F40608F105
:1026E000240B18460293FEF7D3FEC4F8E080C4F82A
:1026F000E8B0C4F8EC50304605F07CF904F5FA7304
:1027000018460393FEF7C4FEC4F8F481C4F8FCB184
:1027100004F502704FF4A07BC4F800524FF46161DD
:1027200009F06CFD2A4629463846CDF800B0F02362
:10273000FFF78DFF04F104084FF07F43A36639468D
:10274000404605F03FFB2A4629465046CDF800B0EA
:10275000F023FFF77CFF394BC4F8943051464046D4
:1027600005F030FB50230093782219464846FFF7C6
:102770006EFF4FF4A063C4E93133C4F8CC304FF49A
:102780003453C4F8D4304FF0FF33C4F8EC30A4F81D
:10279000F030029BC4F8C03049464046C4F8D850D7
:1027A000C4F8D05005F00EFB304641221921FFF746
:1027B00041FFBE2300932A462946304605F0BEF865
:1027C0002B46294630460095642205F047F95F22E2
:1027D0001146304605F047F83046552105F06DF8B2
:1027E0003046142105F06FF84FF4B4722946304694
:1027F00005F0EDF83046B42105F06CF805A9304637
:10280000ADF8145005F071FA0D4BC4F800324FF6D4
:10281000E253A4F804320399304605F021F830461B
:102820003C2105F0B8F84046314605F0CBFA204689
:1028300007B0BDE8F08F00BF04200208FA0A4AFF83
:1028400017BDFEFFE02502087047000030B5164DA9
:102850002C68BFF35B8F14F001048FB020D12846A1
:102860001CF01DFEE0B13F230993104B0893104B61
:10287000104911480A940122CDE906430423CDE909
:1028800003320A230093CDE90B44CDE901440594BA
:10289000FFF780FE09481DF065FD28461CF00BFE81
:1028A00005480FB030BD00BF44270020D0330208D8
:1028B000DC330208A033020848270020492800081A
:1028C0007047000030B5164D2C68BFF35B8F14F0D5
:1028D00001048FB020D128461CF0E1FDE0B13F2378
:1028E0000993104B0893104B104911480A94012288
:1028F000CDE906430423CDE9033214230093CDE947
:102900000B44CDE901440594FFF744FE09481DF04E
:1029100029FD28461CF0CFFD05480FB030BD00BF93
:1029200074270020D4330208E0330208B0330208D1
:1029300078270020C12800087047000030B5164DE8
:102940002C68BFF35B8F14F001048FB020D12846B0
:102950001CF0A5FDE0B13F230993104B0893104BE9
:10296000104911480A940122CDE906430423CDE918
:10297000033228230093CDE90B44CDE901440594AB
:10298000FFF708FE09481DF0EDFC28461CF093FDFA
:1029900005480FB030BD00BFA4270020D83302087F
:1029A000E4330208C0330208A827002039290008B0
:1029B00000207047002070470EB403B503AB002120
:1029C00053F8042B01930BF009FC02B05DF804EB03
:1029D00003B070470CB407B504AB53F8042B019354
:1029E0000BF0FCFB03B05DF804EB02B07047000095
:1029F000436C10B5044673B3038F2BB9184B194AB7
:102A0000C52119481DF090FCC38E00EB43035B8C7D
:102A10000BB30DF032FA238F012B03D8134B144A5A
:102A2000CB21EEE7E28E531C9BB2092B194688BFDF
:102A3000A3F10A0104EB410140F63F10498C8142A9
:102A400009D10A2B04EB420228BF002304EB430305
:102A5000508C588451842046BDE810400DF010B9C8
:102A60003020020839200208E42002082E21020842
:102A70003C2102080DF0CBB838B518BB124B1348F7
:102A80001C681349B4B1226822440260626822447F
:102A90000A60A26814440F4B00221A8000F02AF842
:102AA000054600F025F80C4B1C600C4B1D600C4BD0
:102AB000188007E00B4B03600B4B0B600B4B1C6843
:102AC000002CE8D138BD00BFE0270020D827002027
:102AD000D4270020DC270020B0350120B8350120A4
:102AE000B4350120EC330208E8330208F033020861
:102AF0000020704700487047E427002010B5FFF71A
:102B0000E1FE044C2060FFF719FF6060FFF79EFEB6
:102B1000A06010BDE427002010B5002404600C6004
:102B200014601C6010BD704710B54FF4AE710446C0
:102B30001CF0B3FC204610BD10B50446D0F8580177
:102B400000F013F82046BDE810400AF04DBC00002C
:102B500010B50446FFF7ACFC014B2360204610BDC6
:102B6000182202080022026070477047704704383C
:102B70007047704710B5102104461CF08EFC2046AB
:102B800010BDA0F10400F5E700228260024A026055
:102B900018324260C16070476C2202087047000022
:102BA00010B5034B03600446FFF72AFD204610BD15
:102BB0009422020810B50446FFF7F2FF204641F2C6
:102BC00018011CF06AFC204610BD000010B5044638
:102BD000FFF766FD014B2360204610BD94220208DA
:102BE000FFF70DBDF02070474FF4A070704729200B
:102BF000FEF7AABF2820FEF7A7BF08B5FEF778FFAB
:102C0000CA20FEF7A1FFC320FEF782FF0820FEF7CF
:102C10007FFF5020FEF77CFFCF20FEF795FF0020BE
:102C2000FEF776FFC120FEF773FF3020FEF770FF3E
:102C3000ED20FEF789FF6420FEF76AFF0320FEF710
:102C400067FF1220FEF764FF8120FEF761FFE82096
:102C5000FEF77AFF8520FEF75BFF0020FEF758FFA6
:102C60007820FEF755FFCB20FEF76EFF3920FEF7E8
:102C70004FFF2C20FEF74CFF0020FEF749FF3420C9
:102C8000FEF746FF0220FEF743FFF720FEF75CFF4A
:102C90002020FEF73DFFEA20FEF756FF0020FEF75A
:102CA00037FF0020FEF734FFB120FEF74DFF002074
:102CB000FEF72EFF1B20FEF72BFFB620FEF744FF8A
:102CC0000A20FEF725FFA220FEF722FFC020FEF714
:102CD0003BFF1020FEF71CFFC120FEF735FF102040
:102CE000FEF716FFC520FEF72FFF4520FEF710FF69
:102CF0001520FEF70DFFC720FEF726FF9020FEF7F8
:102D000007FF3620FEF720FFC820FEF701FFF22064
:102D1000FEF71AFF0020FEF7FBFEB020FEF714FFBF
:102D2000C220FEF7F5FEB620FEF70EFF0A20FEF7E2
:102D3000EFFEA720FEF7ECFE2720FEF7E9FE0420B9
:102D4000FEF7E6FE2A20FEF7FFFE0020FEF7E0FE7B
:102D50000020FEF7DDFE0020FEF7DAFEEF20FEF792
:102D6000D7FE2B20FEF7F0FE0020FEF7D1FE00205C
:102D7000FEF7CEFE0120FEF7CBFE3F20FEF7C8FE99
:102D8000F620FEF7E1FE0120FEF7C2FE0020FEF76E
:102D9000BFFE0620FEF7BCFE2C20FEF7D5FEC820A5
:102DA000FEF720FF2620FEF7CFFE0120FEF7B0FE43
:102DB000E020FEF7C9FE0F20FEF7AAFE2920FEF74D
:102DC000A7FE2420FEF7A4FE0C20FEF7A1FE0E2095
:102DD000FEF79EFE0920FEF79BFE4E20FEF798FEB2
:102DE0007820FEF795FE3C20FEF792FE0920FEF7C4
:102DF0008FFE1320FEF78CFE0520FEF789FE1720BC
:102E0000FEF786FE1120FEF783FE0020FEF780FE0F
:102E1000E120FEF799FE0020FEF77AFE1620FEF76D
:102E200077FE1B20FEF774FE0420FEF771FE1120D2
:102E3000FEF76EFE0720FEF76BFE3120FEF768FE00
:102E40003320FEF765FE4220FEF762FE0520FEF706
:102E50005FFE0C20FEF75CFE0A20FEF759FE2820DC
:102E6000FEF756FE2F20FEF753FE0F20FEF750FE12
:102E70001120FEF769FEC820FEF7B4FE2920FEF7F8
:102E800063FEBDE808402C20FEF75EBE08B5FEF7E5
:102E90002FFE0321D320FEF773FE80B208BD10B5CC
:102EA000C4B2022203212046FEF7D8FD0A20FEF715
:102EB0001DFE204600220321FEF7D0FDBDE8104094
:102EC0000220FEF713BE38B50446E4B2FEF7C4FD97
:102ED00000212046FEF7DAFD012105462046FEF7D7
:102EE000D5FD40EA052080B238BD10B5C4B24021FE
:102EF0002046FEF7CBFD030607D54C212046FEF702
:102F0000C5FD003818BF012010BD01224B2120460D
:102F1000FEF7A4FD204600224B21FEF79FFD002076
:102F2000F2E773B50423C4B20E461546D7210DEB64
:102F300003022046FEF7C4FD019B1BBA1A0DC3F322
:102F40000B23328020462B8001224B21FEF786FD89
:102F500000224B212046FEF781FD02B070BD00002B
:102F600010B50A4A1378984204460DD05178884229
:102F70000AD00BB141B90123D454FEF76DFD2046B0
:102F8000BDE81040FFF78BBF10BD00BFF027002049
:102F900010B5C4B209212046FEF778FD40F00102C9
:102FA000D2B220460921BDE81040FEF757BD10B54A
:102FB000C4B209212046FEF769FD092100F0FE0296
:102FC0002046BDE81040FEF749BD38B5C4B20D46F5
:102FD00020460A21FEF75AFD40EA0502D2B22046F9
:102FE0000A21BDE83840FEF739BD10B50446FEF7AA
:102FF00034FD20461F21FFF7E8FF2046BDE81040C2
:10300000FFF7C6BF38B5C4B20D4620460A21FEF709
:103010003DFD20EA0502D2B220460A21BDE8384033
:10302000FEF71CBD10B50446FFF7C1FF20461F2167
:10303000BDE81040FFF7E6BF10B5C0B20C460B214B
:10304000FEF724FD204010BD1F21FFF7F5BF0A4603
:10305000C0B20B21FEF702BD1F21FFF7F8BF38B544
:10306000C4B20D4620461721FEF710FD20EA0502E6
:10307000D2B220461721BDE83840FEF7EFBC70B54C
:10308000C4B2064604212046FEF700FD042100F0EC
:10309000FB0205462046FEF7E1FC3046F021FFF733
:1030A000DEFF05F0F80220460421FEF7D7FC492296
:1030B00020212046FEF7D2FC0220FEF717FD204615
:1030C00001222121FEF7CAFC20469A224121FEF767
:1030D000C5FC204601224A21FEF7C0FC2046012201
:1030E0004B21FEF7BBFC204600224B21FEF7B6FC2D
:1030F000204601225621FEF7B1FC2046012258212C
:10310000FEF7ACFC204601224021FEF7A7FC20463A
:10311000FF220B21FEF7A2FCBDE870400220FEF763
:10312000E5BC0000054BD3F8882042F47002C3F8D8
:1031300088204FF000629A60704700BF00ED00E009
:1031400008B50B4B1A6842F400721A601A6842F410
:1031500080621A601A6842F480721A60032000F0DC
:103160002FF80020FEF780FFFEF74AFD002008BD83
:10317000003C0240034A044B11681B780B44136067
:10318000704700BFF427002078000020014B18682A
:10319000704700BFF427002038B50446FFF7F6FF5C
:1031A000631C1CBF054B1B78054618BFE418FFF7CE
:1031B000EDFF431BA342FAD338BD00BF78000020C7
:1031C0000749CA6822F4E0620302120403F4E063D0
:1031D000120C134343F0BF6343F40033CB607047DA
:1031E00000ED00E0164B30B5DC68C4F30224C4F1F6
:1031F0000703251D042B28BF0423062D4FF0FF35A0
:103200008CBF033C002405FA03F321EA0303A54025
:1032100022EA0502A340002843EA0203ACBF00F102
:103220006040084A4FEA0313B8BF00F00F00DBB25A
:10323000AABF00F56140135480F8003330BD00BFD1
:1032400000ED00E014ED00E0002807DB044A41092E
:10325000012300F01F00834042F82130704700BF77
:1032600000E100E010B5044650B1437903F0FF02DD
:1032700013B90271FEF7E4FC01236371002010BD55
:103280000120FCE710B5044630B390F8393003F064
:10329000FF021BB980F83820FEF7EAFC226861685B
:1032A000022384F83930136823F440330B4313604E
:1032B000536BA16823F007030B435363136CE1685E
:1032C00023F47F5323F03F030B43136400200123B7
:1032D000E06384F8393010BD0120FCE77047704787
:1032E000036870B55E681D68F207044614D5E905E9
:1032F00012D51A6822F480721A60C26B42F0010281
:10330000C26301229A60042380F83930002380F8D8
:103310003830436903B19847B20616D5AB0414D5CB
:1033200023681A6822F400521A6020229A60E36B24
:1033300043F00203E363042384F83930002384F864
:10334000383063690BB120469847300716D52905F8
:1033500014D523681A6822F400621A6008229A6061
:10336000E36B43F00403E363042384F83930002360
:1033700084F8383063690BB12046984772070BD543
:103380006B0509D523681A6822F480621A6004224A
:103390009A602046FFF7A2FFB00714D5A90512D501
:1033A00023681A6822F400721A6002229A60E36BA2
:1033B000E363012384F83930002384F8383023692B
:1033C0000BB120469847F20613D5EB0411D52368BC
:1033D0001A6822F480521A6010229A60E36BE36349
:1033E000012384F83930002384F838302046FFF771
:1033F00076FF70BDF0B590F83820012A03464FF0F3
:1034000002002BD0012283F8382083F8390003EB27
:103410000112D2E90740556A174F44EA0040093CBF
:10342000012C9CBF05F07F4210434FEA01161A6839
:1034300088BF40EA056091B9516A39400143516241
:10344000012C9969916103D8596A21F07F419162F9
:103450000122002083F8392083F83800F0BDD169BB
:1034600039400143D1619919012C896911619CBFCF
:1034700025F07F451562EBE7F0FFFC002DE9F74FE3
:10348000DFF8BC916C4A00230D6801249C4004EADB
:103490000506AC4340F0B7804D68032705F00304F0
:1034A0004FEA430807FA08FC671E012F6FEA0C0C6D
:1034B00034D8876807EA0C0ECF6807FA08F747EA9E
:1034C0000E078760476827EA060EC5F300179F407E
:1034D00047EA0E074760C76807EA0C0E8F6807FACD
:1034E00008F747EA0E07022CC76019D14FEAD30A42
:1034F00000EB8A0A03F0070BDAF820704FEA8B0B17
:103500004FF00F0E0EFA0BFE27EA0E0E0F6907FAA8
:103510000BF747EA0E07CAF8207001E0032CDAD156
:10352000076804FA08F407EA0C073C4315F4403F27
:10353000046068D000240194D9F8444044F48044E5
:10354000C9F84440D9F8444023F0030707F1804705
:1035500004F4804407F59C37019403F0030C019CAC
:10356000D7F808E04FEA8C0C0F2404FA0CF42EEA8A
:10357000040E324CA0424DD004F58064A0424BD0E2
:1035800004F58064A04249D004F58064A04247D08D
:1035900004F58064A04245D004F58064A04243D085
:1035A00004F58064A04241D004F58064A0423FD07D
:1035B00004F58064A0423DD004F58064A04214BFAD
:1035C0000A24092404FA0CF444EA0E04BC6094684A
:1035D000F74315F4801F0CBF3C4034439460D4681B
:1035E00015F4001F0CBF3C403443D460546815F4FC
:1035F000003F0CBF3C40344354601468ED0354BF9B
:103600003C40344314600133102B7FF43DAF03B0D2
:10361000BDE8F08F0024D5E70124D3E70224D1E7E9
:103620000324CFE70424CDE70524CBE70624C9E72C
:103630000724C7E70824C5E7003C0140000002401A
:10364000003802400369194214BF0120002070476E
:103650000AB1816170470904FBE7436901EA03028B
:1036600021EA030141EA02418161704701684B6927
:1036700013F480634FF0000210D06FF480634B614D
:103680002023026380F83D3080F83E20036C80F8F0
:103690003C2043F004030364012070471846704740
:1036A0002DE9F84606460F4691461D464FEA114A57
:1036B0003368BAF1010F0CBF5C699C6927EA040406
:1036C000A4B2B4FA84F46409A14501D0002025E035
:1036D0006A1CEED0FFF75AFD089BC01AA84201D819
:1036E000002DE5D13368BAF1010F0CBF5B699B690E
:1036F00027EA03039BB2B3FA83F35B099945D7D159
:1037000000232022336386F83D2086F83E30326C59
:1037100086F83C3042F0200232640120BDE8F88691
:103720002DE9F04104460F4616469846256868691B
:1037300027EA000080B2C0B16B695A0517D52B6823
:1037400043F400732B606FF480636B6120220023CD
:10375000236384F83D2084F83E30236C43F0040357
:103760002364002384F83C300120BDE8F081731C01
:10377000DDD0FFF70BFDA0EB0800B04201D8002E12
:10378000D4D123685A6927EA020292B2002ACDD026
:1037900000232022236384F83D2084F83E30236CEC
:1037A0001343DDE770B504460D46164623685B6992
:1037B0001B0601D500201EE02046FFF757FFC8B9C1
:1037C0006A1CF3D0FFF7E2FC801BA84201D8002D51
:1037D000ECD123685B6913F08003E7D120222363D7
:1037E00084F83D2084F83E30226C84F83C3042F06E
:1037F00020022264012070BD2DE9F04315460268C5
:1038000085B0DDE90C789946136843F48073136042
:103810000E463B46CDF8008000224FF001110446D1
:10382000FFF73EFF236838B11B68DB0502D54FF474
:1038300000732364032620E006F0FE061E611A4989
:1038400043463A462046FFF76BFFA8B9236803902A
:103850005A6903929B690393424639462046039B6B
:10386000FFF7A0FF064660B1236C042B01BF22685E
:10387000136843F4007313600126304605B0BDE8B9
:10388000F083B9F1010F236802D1EDB21D61F4E7B5
:103890002A0A1A61394642462046FFF783FF00286C
:1038A000E2D12368F1E700BF020001002DE9FF47E4
:1038B0009A46036815461A6842F480621A601A68CC
:1038C000DDE90C7842F480721A600E463B46CDF872
:1038D000008000224FF001110446FFF7E1FE23684B
:1038E00038B11B68DB0544BF4FF400732364032029
:1038F00021E05FFA86F906F0FE061E612B49434679
:103900003A462046FFF70CFFA0B9236803905A6996
:1039100003929B690393424639462046039BFFF777
:1039200041FF58B1236C042B01BF2268136843F494
:1039300000731360012004B0BDE8F087BAF1010FF5
:1039400023681AD1EDB242461D6139462046FFF781
:1039500029FF02460028E5D121680B6843F48073F3
:103960000B602046CDF800803B464FF00111FFF779
:1039700097FE226860B11368B4E72A0A1A613946D3
:1039800042462046FFF70EFF0028CBD12368D9E737
:1039900049F001031361054943463A462046FFF7C3
:1039A000BFFE003818BF0120C5E700BF02000100BC
:1039B00070B504460D46164623685B695B0701D562
:1039C00000201EE02046FFF751FEC8B96A1CF3D064
:1039D000FFF7DCFB801BA84201D8002DECD1236847
:1039E0005B6913F00403E7D12022236384F83D20B0
:1039F00084F83E30226C84F83C3042F0200222648D
:103A0000012070BD70B504460D46164621684B690D
:103A100013F0400301D0002011E04A69D2060FD50F
:103A20006FF010024A612022236384F83D2084F85D
:103A30003E30236C2364002384F83C30012070BDA9
:103A4000FFF7A4FB801BA84201D8002DDED123681C
:103A50005B6913F04003D9D12022236384F83D2011
:103A600084F83E30236C1343E4E7000070B504464D
:103A700008B9012070BD90F83D3003F0FF021BB97A
:103A800080F83C20FEF716F9242384F83D302368A3
:103A90001A6822F001021A601A6842F400421A60A1
:103AA0001A6822F400421A6000F0B2FE3F4B6568CB
:103AB0009D4294BF3E4B3F4B98428CBF0023012355
:103AC000002BD6D12268394E51683B4BB0FBF3F343
:103AD00021F03F011943B542516088BF4FF49676FB
:103AE000116A88BF734321F03F0184BF4FF47A7697
:103AF000B3FBF6F301330B431362D169431E2B482A
:103B000021F44F41854221F0FF0132D86D0040F68B
:103B1000FC70B3FBF5F30133034242D0C3F30B0354
:103B20001943D161D4E907301168034321F0C00182
:103B30000B4313609168D4E9030321F40341034369
:103B400021F0FF010B439360D4E90530D1680343B2
:103B500021F0FF010B43D360136843F001031360AE
:103B600000202023206484F83D30206384F83E0048
:103B700080E7A06850B905EB4505B3FBF5F30133C9
:103B8000C3F30B037BB143F40043C9E71920684337
:103B9000B3FBF0F30133C3F30B0323B143F440430E
:103BA000BEE70423BCE70123BAE700BFA0860100FB
:103BB0007F841E00FF083D0040420F002DE9F743BF
:103BC000044699460C9E0F469046FFF7DFFA94F89C
:103BD0003D30202B054603D0022003B0BDE8F08322
:103BE00000903C49192301222046FFF759FD002887
:103BF000F2D194F83C30012BEED02068012384F8F8
:103C00003C300368D9075EBF036843F001030360DB
:103C1000036823F400630360212384F83D304023CC
:103C200084F83E30002323640A9B6362BDF82C3085
:103C30006385638D2385284BE3624246CDE90065A9
:103C40004B4639462046FFF7D7FD00282AD00120F1
:103C5000C3E7FFF7A7FD40B1236C042B01BF226827
:103C6000136843F400731360F1E7636A27681A4628
:103C700012F8011B39616262628D218D013A92B2A4
:103C800062857A69481E80B2520720850AD548B1FC
:103C90005A783A6102336362638D013B02399BB209
:103CA00021856385238D2A4631462046002BD0D1BD
:103CB000FFF77EFE0028CFD12268136843F400731B
:103CC0001360202384F83D3084F83C0084F83E00E3
:103CD00083E700BF020010000000FFFF2DE9F04362
:103CE000044687B09946109F0D469046FFF74EFA5E
:103CF00094F83D30202B064604D00225284607B014
:103D0000BDE8F08300907A49192301222046FFF78D
:103D1000C7FC0028F1D194F83C30012BEDD020688D
:103D2000012384F83C300368DB075EBF036843F07F
:103D300001030360036823F400630360222384F813
:103D40003D30402384F83E30002323640E9B6362A1
:103D5000BDF83C306385638D2385664BE36229465D
:103D6000CDE900764B4642462046FFF79FFD0546CB
:103D700008B10125C2E7228D2368B2B902905A69C1
:103D800002929A690292029A1A6842F400721A60C8
:103D9000DFF86481238D002B2CD1202284F83D2074
:103DA00084F83C3084F83E30A8E7012A0AD11A682A
:103DB00022F480621A6003905A6903929A6903920E
:103DC000039AE1E7022A0ED11A6822F480621A608F
:103DD0001A6842F400621A6004905A6904929B695E
:103DE0000493049BD4E705905A6905929B69059357
:103DF000059BCDE7032B56D8012B15D1324639460A
:103E00002046FFF7FFFD0028B3D123681A69636AD3
:103E10001A70636A01336362238D013B2385638DCE
:103E2000013B9BB26385B5E7022B00963B464FF002
:103E300000024146204619D1FFF732FC002898D1F4
:103E400023681A6842F400721A601A69636A1A7069
:103E5000626A531C6362238D013B2385638D013BA2
:103E60009BB2638523681B695370D2E7FFF718FC88
:103E7000024600287FF47DAF2368196821F4806131
:103E800019601969636A1970636A01336362238D6B
:103E9000013B2385638D013B9BB2638541460096C0
:103EA0003B462046C8E7324639462046FFF7AAFD82
:103EB00000287FF45EAF23681A69636A1A70628D06
:103EC000616A013A92B24B1C628522686362238D5B
:103ED0005069013B9BB2400723857FF55BAF032B05
:103EE00002BF136823F48063136013694B7090E77B
:103EF000020010000000FFFF0400010010B590F860
:103F00003D30202BDCB216D1242380F83D300368ED
:103F10001A6822F001021A605A6A22F010025A62EC
:103F20005A6A114359621A6842F001021A6080F815
:103F30003D40002010BD0220FCE730B590F83D3038
:103F4000202BDCB216D10268242380F83D301368A0
:103F500023F001031360556A4FF6F0732B400B43B7
:103F60009BB25362136843F00103136080F83D4035
:103F7000002030BD0220FCE70068D1F800C0D2016B
:103F8000843283182DE9F043C6685D684C68D1F827
:103F9000189005F470455D60C5680CF10107C5F324
:103FA0000B45C6F30B463D44264445EA06455D6095
:103FB000C668CD68C6F30A062E449D6805F47045B0
:103FC0009D60C7688D68C7F30A0701353D4445EA1F
:103FD00006459D601D690E6925F007051D614FF0BE
:103FE000000E1E619D6991F8327091F83180C3F81E
:103FF00018E091F8305045EA096545EA082545EA98
:1040000007459D615D6925F0FF055D614D695D6155
:10401000DD6925F4E06525F00705DD61D1E9075785
:104020003D43DD619D6A4D6AC3F828E09D621EB381
:10403000012E23D0B51E022D22D9072E14BF012533
:104040000225DE6A06F0E026DE62A4EB0C048E6A2E
:10405000C96A6C436E43033444EA0644DC621C6B59
:1040600024F4FF6424F007041C631963835843F0AD
:1040700001038350BDE8F0830425E2E70325E0E770
:104080000225DEE738B50446002863D090F8A13059
:1040900003F0FF021BB980F8A020FDF767FE0223A2
:1040A00084F8A13023689A6922F070429A61D4E9B9
:1040B00001200243E06899690243206902430A43F0
:1040C0009A619A68244960690A409A609A6842EA4B
:1040D0000042A06902439A60DA68E0690A40DA6047
:1040E000DA6842EA0042206A0243DA601A69606ACA
:1040F0000A401A611A6942EA0042A06A02431A6140
:104100005A690A405A615A69E16A42EA0142216BDE
:104110000A435A61DA6A94F8350094F8361002F0CE
:104120007F42DA62DD6A94F834202A4342EA0022B0
:1041300042EA0142DA625A6B42F006025A639A6915
:1041400042F001029A6100200123C4F8A40084F81F
:10415000A13038BD0120FCE700F800F0704770473F
:10416000036870B59E6B5D6B7207044614D56907D2
:1041700012D55A6B22F004025A630422DA63D0F893
:10418000A43043F00103C0F8A430002380F8A1203C
:1041900080F8A030FFF7E2FFB20716D5AB0714D5C1
:1041A00023685A6B22F002025A630222DA63D4F8BF
:1041B000A4301343C4F8A430042384F8A1300023AE
:1041C00084F8A0302046FFF7C9FFF00710D5E907B3
:1041D0000ED523685A6B22F001025A630122DA637A
:1041E000002384F8A12084F8A0302046FDF7DCF9F4
:1041F000320711D52B070FD523685A6B22F008021E
:104200005A630822DA63012384F8A130002384F87A
:10421000A0302046FFF7A3FF70BD2DE9F04190F8D4
:10422000A030012B06460F4694464FF002001FD0E7
:104230004FF0010886F8A08086F8A10034240D46CE
:1042400004FB02640FCD38340FC40FCD0FC40FCD63
:104250000FC42B682360304662463946FFF78CFE58
:1042600033680020C3F8248086F8A18086F8A00077
:10427000BDE8F08190F8A020012A03464FF002002B
:1042800012D01A6883F8A100506B20F0010050632F
:1042900006480164516B41F0010151630020012285
:1042A00083F8A12083F8A000704700BF0068014098
:1042B00037B500230193184B184D1A6C42F0805209
:1042C0001A641B6C03F080530193019B144B012271
:1042D0001A64FEF75BFF04466B68DA030BD5104BDC
:1042E0000E4D01225A64FEF751FF04466B689B0392
:1042F0000AD5002006E0FEF749FF001BB0F57A7FE3
:10430000EAD9032003B030BDFEF740FF001BB0F533
:104310007A7FEBD9F5E700BF00380240007000401B
:1043200000000E422DE9F341044640B30368DE0766
:1043300010D423689D075BD42368190700F19D8082
:1043400023685A0700F1BD80A369002B40F0248147
:1043500000202CE08D4B9A6802F00C02042A07D052
:104360009A6802F00C02082A0BD15B68590208D542
:10437000864B1B689A03DCD56368002BD9D10120DA
:1043800015E06368814DB3F5803F13D12B6843F48A
:1043900080332B60FEF7FAFE7C4E054633689B03A4
:1043A000C7D4FEF7F3FE401B6428F7D9032002B000
:1043B000BDE8F081B3F5A02F04D12B6843F480232E
:1043C0002B60E3E72A6822F480322A602A6822F40C
:1043D00080222A60002BDDD1FEF7D8FE06462B682E
:1043E0009F03A6D5FEF7D2FE801B6428F7D9DDE730
:1043F000664B9A6812F00C0F07D09A6802F00C0214
:10440000082A11D15B685D020ED4604A13689907CF
:1044100002D5E368012BB2D11368216923F0F803B8
:1044200043EAC103136087E7E268594BB2B1012246
:104430001A60FEF7ABFE554D06462B689B0707D565
:104440002B68226923F0F80343EAC2032B6073E769
:10445000FEF79CFE801B0228EFD9A7E71A60FEF743
:1044600095FE4A4E054633689F077FF565AFFEF718
:104470008DFE401B0228F6D998E76269444B82B151
:104480000122C3F8802EFEF781FE404E0546736F71
:104490009B073FF555AFFEF779FE401B0228F6D982
:1044A00084E7C3F8802EFEF771FE384E0546736F21
:1044B0009F077FF545AFFEF769FE401B0228F6D93E
:1044C00074E7324B1A6C12F0805228D101921A6CA8
:1044D00042F080521A641B6C03F080530193019BDD
:1044E00001272C4D2B68D8051BD5A368274D012B20
:1044F00027D12B6F43F001032B67FEF747FE234EB6
:10450000054641F28838336F9A0739D5002F3FF4BA
:104510001BAF1E4A136C23F08053136414E700276B
:10452000DFE72B6843F480732B60FEF72FFE06460F
:104530002B68D905D9D4FEF729FE801B0228F7D9AC
:1045400034E7052B04D12B6F43F004032B67D0E72E
:104550002A6F22F001022A672A6F22F004022A67DA
:10456000002BCAD1FEF712FE41F2883806462B6FA7
:104570009B07CBD5FEF70AFE801B4045F7D915E710
:10458000FEF704FE401B4045BDD90FE7003802404E
:104590000000474200700040374DAA6802F00C024C
:1045A000082A3ED0022B354B4FF000021A662BD161
:1045B000FEF7ECFD06462B6899011FD4D4E90732BB
:1045C0001343626A43EA8213E26A43EA0263A26A1D
:1045D0005208013A43EA02436B60284B264D012200
:1045E0001A66FEF7D3FD04462B689A013FF5B0AE7C
:1045F000FEF7CCFD001B0228F6D9D7E6FEF7C6FD74
:10460000801B0228D7D9D1E6FEF7C0FD04462B68EF
:104610009B017FF59DAEFEF7B9FD001B0228F6D980
:10462000C4E6012B3FF4ABAE6B68E26903F4800192
:1046300091427FF4A4AE216A03F03F028A427FF4E4
:104640009EAE616A47F6C0721A40B2EB811F7FF4DA
:1046500096AEA26A520803F44031013AB1EB024F20
:104660007FF48DAEE26A03F07063B3EB026F14BFA8
:10467000012000209BE600BF0038024000004742B6
:10468000134908B58B6803F00C03042B1CD0082BCE
:104690001CD14A684B68496813F4800314BF0D4865
:1046A0000D48C1F3881118BF002302F03F02A1FB9F
:1046B0000001FBF73DFE064B5B68C3F3014301338A
:1046C0005B00B0FBF3F008BD0248FCE70248FAE7E4
:1046D0000038024000127A000024F4002DE9F04175
:1046E0000D46044610B90120BDE8F081434B1A681D
:1046F00002F00F028A4228D321688F072DD4C80701
:1047000040D43E4B1A6802F00F02AA4265D82268D4
:1047100051076BD4130707D5394A2169936823F4ED
:10472000604343EAC1039360FFF7AAFF344B354A65
:104730009B68C3F30313D35CD840334B1860334BEF
:104740001868FDF791FC0020CEE7CAB21A701B680A
:1047500003F00F038B42C6D1CEE7294B11F0040FB3
:104760001EBF9A6842F4E0529A600E0742BF9A68F0
:1047700042F460429A609A68A06822F0F002024314
:104780009A60BCE762681E4B012A1CD11B6813F4B7
:10479000003FA8D01A4EB36823F003031343B3605D
:1047A000FEF7F4FC41F288380746B368626803F00C
:1047B0000C03B3EB820FA4D0FEF7E8FCC01B40450E
:1047C000F3D9032090E7911E01291B6802D813F04A
:1047D000007FDEE713F0020FDBE7EAB21A701B6816
:1047E00003F00F03AB427FF47EAF90E70449E0682B
:1047F0008B6823F4E05303438B608BE7003C02405B
:1048000000380240C8220208740000207C0000200A
:10481000044B054A9B68C3F38223D35C034A1068A8
:10482000D840704700380240C022020874000020BF
:104830000F2303600B4B9A6802F0030242609A68F0
:1048400002F0F00282609A6802F4E052C2609B6853
:10485000DB0803F4E0530361034B1B6803F00F0311
:104860000B60704700380240003C0240036813F0C0
:10487000430FF7B5044640F08880236813F00C0F0F
:1048800045D08C4B8C4D00221A67FEF77FFC064604
:104890002B68990000F1CB8021684A0715D5D4E92F
:1048A0000403D5F888201B0602F0E04243EA801397
:1048B0001343C5F88830D5F88C30226A23F4F853B6
:1048C000013A43EA0223C5F88C300B0714D57A4A23
:1048D000A369D2F8881020691B0701F0706143EAD0
:1048E00080130B43C2F88830D2F88C30616A23F40D
:1048F00040330B43C2F88C306E4B6F4E01221A6767
:10490000FEF744FC054633689F0040F1978023681A
:10491000980634D500230193674B684D1A6C42F01A
:1049200080521A641B6C03F080530193019B2B6827
:1049300043F480732B60FEF729FC06462B68D805EC
:1049400040F183805C4DA26A2B6F13F4407340F0FA
:104950008380A36A03F44072B2F5407F564A40F068
:104960009E80916823F0704021F4F81120F440708B
:1049700001439160116FC3F30B030B43136723686B
:10498000DB0600F1908000204FE04A4B4A4E0022A7
:104990009A66FEF7FBFB054633681F013FD421688A
:1049A000C80741BFD4E901231B0743EA8213C6F8B5
:1049B00084308A0715D5404AE368D2F884006568D8
:1049C0001B0600F0E04043EA85130343C2F884303D
:1049D000D2F88C00E36920F01F00013B0343C2F8CA
:1049E0008C304B060AD5E36862681B0643EA8213E3
:1049F000A26843EA0273304AC2F884302D4B2E4E2F
:104A000001229A66FEF7C2FB054633681F013FF597
:104A100034AFFEF7BBFB401B0228F6D904E0FEF7DB
:104A2000B5FB401B0228B7D9032003B0F0BDFEF749
:104A3000ADFB801B02287FF62BAFF5E7FEF7A6FB48
:104A4000401B02287FF65FAFEEE7FEF79FFB801B5F
:104A500002287FF673AFE7E702F4407293423FF417
:104A600078AF2B6F134A0121C2F8401E23F4407324
:104A70000021C2F8401E2B672B6FD9077FF569AF65
:104A8000FEF784FB41F2883706462B6F9A073FF505
:104A900060AFFEF77BFB801BB842F6D9C4E7916894
:104AA00021F4F81165E7064B94F82C20C3F8E021B7
:104AB00069E700BF00004742003802400070004034
:104AC0000010474238B50D460446C8B190F82C3066
:104AD00003F0FF021BB980F82D20FDF759FA0223DD
:104AE00084F82C30211D206800F022FD62682068C7
:104AF000294600F055FD012384F82C30002038BDF4
:104B00000120FCE770B590F82C30022B05460E46CC
:104B1000D8B212D000F0FB04012C0FD1022385F88B
:104B20002C30286800F072FD3368022B06BF052385
:104B300085F82C3085F82C40002070BD0120FCE762
:104B400038B590F82C30022B0446D8B20DD094F82A
:104B50002C30012BDDB209D10223206884F82C30DF
:104B600000F078FD84F82C50002038BD0120FCE7CF
:104B70002DE9F3471F46894690460446FEF706FB9B
:104B80000A9D3D442D1AFEF701FB264B1E68C6F315
:104B9000CB366E43824601962268936839EA030356
:104BA0000CBF01230023434501D100202EE07B1CD4
:104BB000F3D0FEF7EBFAA0EB0A00A84229D3236852
:104BC0005A6822F0E0025A606268B2F5827F0AD128
:104BD000A268B2F5004F02D0B2F5806F03D11A6817
:104BE00022F040021A60A26AB2F5005F07D11A688B
:104BF00022F400521A601A6842F400521A6001232B
:104C000084F85130002384F85030032002B0BDE80E
:104C1000F087019A019B002A03F1FF33019308BF3B
:104C20001546B9E774000020F0B585B00B46009238
:104C30000E461746022101220446FFF799FF05465A
:104C400028B1636D43F020036365032515E0124B23
:104C50001868124BB0FBF3F04FF47A735843636853
:104C60000390B3F5827F0BD1009733462A4680210B
:104C70002046FFF77DFF0028E3D1284605B0F0BDB0
:104C8000039B002BF9D0039B013B039323689B6894
:104C90001B06F5D4F1E700BF7400002000366E015A
:104CA00037B50B464168B1F5827F044608D00092C3
:104CB00001210022FFF75CFFD0B9002003B030BD16
:104CC0008168B1F5004F02D0B1F5806F07D125683A
:104CD0002868B1F5806F20F04000286004D0009271
:104CE000802100222046E5E7009201210022F9E719
:104CF000636D43F0200363650320DFE710B50446CE
:104D0000002855D0436A002B4ED14268B2F5827F0D
:104D100000D0C3610023A36294F8513003F0FF0276
:104D200023B984F850202046FDF7FCF82168A068DC
:104D3000A269022384F851300B6823F040030B6012
:104D4000636800F4044003F482730343E06800F4F2
:104D500000600343206900F002000343606900F033
:104D60000100034302F400700343E06900F03800DF
:104D70000343206A00F080000343A06A00F400505F
:104D800003430B60636A120C03F0100302F0040289
:104D90001A434A60CB6923F40063CB6100200123EE
:104DA000606584F8513010BD0023C0E90433B1E7D9
:104DB0000120F8E72DE9F74304461F460D469046CB
:104DC000FEF7E4F994F85130012B8146D8B240F057
:104DD0009F80002D74D0B8F1000F71D094F850303E
:104DE000012B00F09580032384F851300023636584
:104DF000C4E91033A4F83680A363A387E387A368CC
:104E0000266884F85000B3F5004F2563A4F8348079
:104E100007D1336823F040033360336843F48043A1
:104E200033603368E2685B065EBF336843F040037B
:104E30003360B2F5006F636845D113B1B8F1010F6B
:104E400007D135F8023BF3602563E38E013B9BB24B
:104E5000E386E38E9BB2D3B94A4639462046FFF734
:104E6000E3FE002851D1A36833B901932368DA68BF
:104E700001929B680193019B012384F85130606D7E
:104E80000023C01A84F8503018BF012018E02268AF
:104E90009368980705D5236B33F8021BD160236311
:104EA000D3E7FEF773F9A0EB0900B842D1D3791C20
:104EB000CFD0012384F85130002384F850300320F0
:104EC00003B0BDE8F08313B1B8F1010F08D12B781E
:104ED0003373236B01332363E38E013B9BB2E38681
:104EE000E38E9BB2002BB7D023689A68920703D554
:104EF000226B12781A73ECE7FEF748F9A0EB090071
:104F0000B842EDD37B1CEBD0D3E720236365AAE73F
:104F10000220D5E72DE9F74304460D4691461E468B
:104F2000DDF82880FEF732F994F851306268012BE1
:104F30000746D9B20AD0B2F5827F40F0E580A36877
:104F4000002B40F0E180042940F0DE80002D4BD0A2
:104F5000B9F1000F48D0002E46D094F85030012B04
:104F600000F0D280012384F8503094F85130C4F816
:104F70003890042B1CBF052384F85130002363654F
:104F8000C4E910332368E687E6861968A6874906D0
:104F900058BF1968256358BF41F04001A68658BF25
:104FA0001960E168B1F5006F55D10AB1012E07D142
:104FB00035F8022BDA60E38E2563013B9BB2E38672
:104FC0000125E38E9BB28BB9E38F9BB273B93A464E
:104FD00041462046FFF728FE002800F0818020236C
:104FE0006365002384F85030012031E021688B682C
:104FF0009A070DD5E38E9BB253B145B1236B33F8BD
:10500000022BCA602363E38E013B9BB2E38600253B
:105010008A6812F001020CD0E38F9BB24BB1A36BF4
:10502000C96823F8021BA363E38F013B9BB2E387AC
:105030001546FEF7ABF8C01B4045C2D3B8F1FF3FA1
:10504000BFD0012384F85130002384F8503003206E
:1050500003B0BDE8F0830AB1012E08D12A781A7393
:10506000236B01332363E38E013B9BB2E38601256F
:105070002DE0226893689B070ED5E38E9BB25BB14F
:105080004DB1236B1B781373236B01332363E38EC2
:10509000013B9BB2E38600252268916811F0010173
:1050A0000DD0E38F9BB253B1A36BD2681A70A36B80
:1050B0000133A363E38F013B9BB2E3870D46FEF709
:1050C00065F8C01B404502D3B8F1FF3FB9D1E38E6C
:1050D0009BB2002BCDD1E38F9BB2002BC9D176E7D9
:1050E000A36833B901932368DA6801929B6801933E
:1050F000019B012384F85130606D0023C01A84F8AD
:10510000503018BF0120A3E70220A1E72DE9F743A3
:105110001E4690F85130012B044689461746DDB2F1
:1051200004D00225284603B0BDE8F0834368B3F5F8
:10513000827F0BD183684BB9042380F8513013462A
:1051400000960A46FFF7E6FE0546EBE7FEF71EF877
:105150008046B9F1000FE5D0002FE3D094F850302D
:10516000012BDED0A268C4F838900123002584F812
:105170005030B2F5004F4FF0040384F85130C4E9C9
:10518000105565652368E787A7872563A586E586AB
:1051900007D11A6822F040021A601A6822F480428D
:1051A0001A601A6855065EBF1A6842F040021A601B
:1051B000E368F3B1E38F9BB2FBB123689A68D2072F
:1051C0003CD5DA68A36B23F8022BA363E38F013B82
:1051D0009BB2E387EEE723689A68D0071ED5A26BDF
:1051E0001B7B1370A36B0133A363E38F013B9BB263
:1051F000E387E38F9BB2002BEDD142463146204638
:10520000FFF74EFD18BB012384F85130656D002374
:10521000ED1A84F8503018BF012583E7FDF7B6FF7B
:10522000A0EB0800B042E4D3711CE2D0012384F863
:105230005130002384F85030032573E7FDF7A6FFB3
:10524000A0EB0800B042B5D3731CB3D0EEE7202327
:105250006365D8E77047000090F83D30012B30D1EE
:10526000022380F83D300368DA6842F00102DA6018
:10527000154A93421AD0B3F1804F17D0A2F57C4261
:10528000934213D002F5806293420FD002F5806200
:1052900093420BD002F57842934207D002F5705248
:1052A000934203D0A2F59432934204D19A6802F05B
:1052B0000702062A03D01A6842F001021A60002091
:1052C00070470120704700BF0000014070477047E1
:1052D00070477047036870B5DD681E69B107044602
:1052E0000DD5AA070BD56FF002021A6101220277D1
:1052F0009B699B0769D0FFF7EAFF002323777107BB
:1053000010D56A070ED523686FF004021A610222D5
:1053100022779B6913F4407F20465CD0FFF7D7FFCC
:105320000023237733070FD528070DD523686FF0A7
:1053300008021A6104222277DB699907204650D0BF
:10534000FFF7C5FF00232377F20610D5EB060ED535
:1053500023686FF010021A6108222277DB6913F4C8
:10536000407F204643D0FFF7B2FF00232377F007AA
:1053700008D5E90706D523686FF001021A612046B7
:10538000FCF732FC320608D52B0606D523686FF0F1
:1053900080021A61204600F0CAF8700608D5690636
:1053A00006D523686FF040021A612046FFF791FF8F
:1053B000B20622D5AB0620D523686FF02002204626
:1053C0001A61BDE8704000F0B1B8FFF77FFF2046DA
:1053D000FFF77EFF91E7FFF779FF2046FFF778FFA1
:1053E0009EE7FFF773FF2046FFF772FFAAE7FFF77C
:1053F0006DFF2046FFF76CFFB7E770BD334A0368C7
:10540000904212D0B0F1804F0FD0A2F57C42904272
:105410000BD002F58062904207D002F58062904284
:1054200003D002F57842904219D14A6823F0700304
:105430001343264A904229D0B0F1804F26D0A2F5DE
:105440007C42904222D002F5806290421ED002F54A
:10545000806290421AD002F57842904216D01C4ADF
:10546000904213D002F5806290420FD002F5806224
:1054700090420BD0A2F59832904207D002F580629C
:10548000904203D002F58062904203D1CA6823F4AF
:10549000407313434A6923F08003134303608B680E
:1054A000C3620B688362094B984203D003F58063A3
:1054B000984201D10B690363012343610369DB0750
:1054C00042BF036923F001030361704700000140FC
:1054D0000040014010B5044630B390F83D3003F071
:1054E000FF021BB980F83C20FFF7B4FE02232068BE
:1054F00084F83D30211DFFF781FF012384F84630F9
:10550000002084F83E3084F83F3084F8403084F83E
:10551000413084F8423084F8433084F8443084F8D1
:10552000453084F83D3010BD0120FCE770477047DE
:105530002DE9F041D1E90738D1E9012CD1E9037611
:10554000D1E90554D1F824E0096843EA080391B988
:1055500043EA0E03134343EA0C0301683B4333431E
:105560002B4321F4FF41234321F07F010B430360D0
:105570000020BDE8F081016843EA0E0321F4F84100
:105580000B43036042EA0C0341683B4333432B4324
:1055900021F4FF42234322F07F0213434360E7E7F5
:1055A000CB6803F1FF3C4B69F0B50F684C688E681F
:1055B0000D698969013B1B05013C013E013D013933
:1055C000013F240136022D04090643EA0C335AB97F
:1055D0003B432343826833432B430B4302F0704227
:1055E000134383600020F0BD826822F4700222F42D
:1055F00070421A43826044EA0603C2683B432B436D
:105600000B4302F070421343C360EBE770B50446EE
:1056100015460269D1E900300343C868920D43EA98
:105620004023920513438A68013A43EA42132361F7
:10563000FDF7ACFD0646A06910F0200003D06B1CFE
:10564000F9D00DB9032070BDFDF7A0FD801BA84265
:10565000F1D9F7E7436923F47F5323F03E0343EA8C
:10566000410343610020704708B54FF0E0231B69F8
:1056700001F0F6FD012803D0BDE8084000F0E2BBD0
:1056800008BD0000EFF305832BB9064B186828B955
:1056900001221A6070476FF0050070474FF0FF302D
:1056A000704700BFB82E002010B5EFF305845CB939
:1056B000084B1A68012A0AD1074AD47702221A60D5
:1056C00001F04CFB204610BD6FF00500FBE74FF0EA
:1056D000FF30F8E7B82E002000ED00E0F0B587B00D
:1056E000144600220B460592EFF30582CAB9C0B1F9
:1056F0006CB3A569002D08BF1825691E3729AC4673
:105700002AD86168C90727D466696EB1B208D4E99E
:10571000027E216857B1BEF15F0F02D9246904B13E
:10572000E6B9059807B0F0BD8022F0E7BEF1000FA2
:10573000F7D12469002CF4D105ACCDE900C492B2B4
:1057400001F0DDFA01281CBF00230593E9E721469B
:105750004FF0180C8022EFE71046E3E7CDE9014750
:10576000009501F094FA0590DBE708B5EFF30582A8
:1057700022B908B101F050FC002008BD6FF005000F
:10578000FBE7F7B504460E461546EFF3058242B92E
:1057900038B1884205D355B1D5E902372BB14F2F27
:1057A00022D80024204603B0F0BD002FF9D1012CEF
:1057B0000CD02046314600F07FFD04460028F0D092
:1057C00085B92946204601F09DF8EBE70322002128
:1057D000012000F028FD0EE01A4600F04BFD0446C3
:1057E0000028DED02D68ECE70128F5D103210091D7
:1057F000114600F0CAFC04460028D2D0002EDFD0AB
:1058000000231A46194600F075FD0128D8D020461D
:1058100001F0A2F8C5E713B50C4628B3EFF30583F2
:10582000CBB109BB01AA019101F01FF8012803D0F7
:105830006FF0020002B010BD019B0BB90020F9E728
:105840004FF0E0234FF08052C3F8042DBFF34F8F89
:10585000BFF36F8FF2E700F04BFF0128EED0002C72
:10586000E6D06FF00100E5E76FF00300E2E707B56F
:1058700018B3EFF30583CBB1002301A9019300F026
:1058800048FE012804D06FF0020003B05DF804FB6D
:10589000019B4BB14FF0E0234FF08052C3F8042D31
:1058A000BFF34F8FBFF36F8F0020EEE71A46194604
:1058B00000F020FD0128F7D0E5E76FF00300E4E7F2
:1058C000F7B505460E461446EFF305871FB10025D0
:1058D000284603B0F0BD0028F9D00029F7D0DAB18E
:1058E000D2E9023283B14F2AF1D92269002AEED0DF
:1058F00066694D43AE42EAD3009700F046FC054688
:105900000028E4D0246811E0002AE0D12369002BAC
:10591000DDD16369002BDAD128460022314600F040
:1059200082FC05460028D2D0002CEBD12146284627
:1059300000F0E8FFCCE773B51C46EFF30586DEB157
:1059400038B331B32BBB01AA019300F085FD0128C8
:1059500003D06FF0020002B070BD019B0BB90020B4
:10596000F9E74FF0E0234FF08052C3F8042DBFF366
:105970004F8FBFF36F8FF2E758B151B133462246D4
:1059800000F0B8FC0128EAD0002CE2D06FF0010052
:10599000E1E76FF00300DEE737B51C46EFF3058360
:1059A000DBB130B329B324BB01AA019400F05DFF41
:1059B000012803D06FF0020003B030BD019B0BB98A
:1059C0000020F9E74FF0E0234FF08052C3F8042D98
:1059D000BFF34F8FBFF36F8FF2E750B149B122464B
:1059E00000F0E8FD0128EBD0002CE3D06FF00100BF
:1059F000E2E76FF00300DFE7034B0360034B0B604C
:105A000080231360704700BF582E0020582C0020C0
:105A1000034B0360034B0B604FF4807313607047BC
:105A2000F82B0020F827002010B5104B1A461B68F1
:105A30008342FBD354681119884201BF4168104664
:105A400009195160446801198B420CD10849096851
:105A50008B4203D05968214441601968016090422B
:105A600018BF106010BD1946F8E700BFD42E002003
:105A7000D02E00202DE9F041044601F0B5F942494D
:105A8000424D0B680BBB424A56071FBFD01D20F08A
:105A9000070002F58032131A0CBF4FF48033024620
:105AA00013443C4E083B23F0070300207060326033
:105AB000C3E90000981AC2E900300B60364B186049
:105AC000364B18604FF000432B602E68264255D1AC
:105AD000002C46D004F1080360071CBF23F0070325
