:020000040800F2
:100000000000032009AD0008814300088343000875
:10001000854300088743000889430008000000006A
:1000200000000000000000000000000011A5000812
:100030008B43000800000000A1A50008859E000871
:1000400059AD000859AD000859AD000859AD000878
:1000500059AD000859AD00088D43000859AD00089E
:1000600059AD000859AD00089343000859AD000888
:1000700059AD000859AD000859AD000859AD000848
:1000800059AD000859AD000859AD000859AD000838
:1000900059AD000859AD000859AD00089943000852
:1000A00059AD0008A143000859AD000859AD00083A
:1000B00059AD000859AD000859AD000859AD000808
:1000C00059AD000859AD000859AD000859AD0008F8
:1000D00059AD000859AD000859AD0008AD430008FE
:1000E00059AD000859AD000859AD000859AD0008D8
:1000F00059AD000859AD000859AD000859AD0008C8
:1001000059AD000859AD000859AD000859AD0008B7
:1001100059AD000859AD0008B943000859AD0008B1
:1001200059AD000859AD000859AD000859AD000897
:1001300059AD000859AD000859AD000859AD000887
:1001400059AD000859AD000859AD000859AD000877
:1001500059AD000859AD000859AD000859AD000867
:1001600059AD000859AD000859AD000859AD000857
:1001700059AD000859AD000859AD00080000000055
:1001800059AD000859AD000859AD000859AD000837
:1001900059AD000859AD000859AD000859AD000827
:0C01A000C543000859AD0008D143000819
:1001B00010B5054C237833B9044B13B10448AFF3A1
:1001C00000800123237010BDE00400200000000027
:1001D0003C66020808B5034B1BB103490348AFF363
:1001E000008008BD00000000E40400203C66020816
:1001F00081F0004102E000BF83F0004330B54FEAD8
:1002000041044FEA430594EA050F08BF90EA020F44
:100210001FBF54EA000C55EA020C7FEA645C7FEAD7
:10022000655C00F0E2804FEA5454D4EB5555B8BFFA
:100230006D420CDD2C4480EA020281EA030382EA6B
:10024000000083EA010180EA020281EA0303362DFD
:1002500088BF30BD11F0004F4FEA01314FF4801CD0
:100260004CEA113102D0404261EB410113F0004FE2
:100270004FEA03334CEA133302D0524263EB430399
:1002800094EA050F00F0A780A4F10104D5F1200E37
:100290000DDB02FA0EFC22FA05F2801841F1000192
:1002A00003FA0EF2801843FA05F359410EE0A5F166
:1002B00020050EF1200E012A03FA0EFC28BF4CF097
:1002C000020C43FA05F3C01851EBE37101F000454D
:1002D00007D54FF0000EDCF1000C7EEB00006EEB5A
:1002E0000101B1F5801F1BD3B1F5001F0CD34908E4
:1002F0005FEA30004FEA3C0C04F101044FEA44523B
:1003000012F5800F80F09A80BCF1004F08BF5FEAC1
:10031000500C50F1000041EB045141EA050130BDA1
:100320005FEA4C0C404141EB010111F4801FA4F144
:100330000104E9D191F0000F04BF01460020B1FA99
:1003400081F308BF2033A3F10B03B3F120020CDAD1
:100350000C3208DD02F1140CC2F10C0201FA0CF0AF
:1003600021FA02F10CE002F11402D8BFC2F1200C14
:1003700001FA02F120FA0CFCDCBF41EA0C019040CA
:10038000E41AA2BF01EB0451294330BD6FEA040413
:100390001F3C1CDA0C340EDC04F11404C4F12002FE
:1003A00020FA04F001FA02F340EA030021FA04F310
:1003B00045EA030130BDC4F10C04C4F1200220FA67
:1003C00002F001FA04F340EA0300294630BD21FAA5
:1003D00004F0294630BD94F0000F83F4801306BF6B
:1003E00081F480110134013D4EE77FEA645C18BF5F
:1003F0007FEA655C29D094EA050F08BF90EA020FF6
:1004000005D054EA000C04BF1946104630BD91EAED
:10041000030F1EBF0021002030BD5FEA545C05D1F0
:100420004000494128BF41F0004130BD14F580042F
:100430003CBF01F5801130BD01F0004545F0FE41A3
:1004400041F470014FF0000030BD7FEA645C1ABFD8
:10045000194610467FEA655C1CBF0B46024650EA0F
:10046000013406BF52EA033591EA030F41F400213B
:1004700030BD00BF90F0000F04BF0021704730B5C1
:100480004FF4806404F132044FF000054FF0000196
:1004900050E700BF90F0000F04BF0021704730B557
:1004A0004FF4806404F1320410F0004548BF40422C
:1004B0004FF000013EE700BF42004FEAE2014FEA81
:1004C00031014FEA02701FBF12F07F4393F07F4F5C
:1004D00081F06051704732F07F4208BF704793F05F
:1004E0007F4F04BF41F40021704730B54FF4607472
:1004F00001F0004521F000411CE700BF50EA010275
:1005000008BF704730B54FF000050AE050EA01021D
:1005100008BF704730B511F0004502D5404261EB8D
:1005200041014FF4806404F132045FEA915C3FF4CE
:10053000D8AE4FF003025FEADC0C18BF03325FEA6B
:10054000DC0C18BF033202EBDC02C2F1200300FA1C
:1005500003FC20FA02F001FA03FE40EA0E0021FA41
:1005600002F11444BDE600BF70B54FF0FF0C4CF42F
:10057000E06C1CEA11541DBF1CEA135594EA0C0FE1
:1005800095EA0C0F00F0DEF82C4481EA030621EA1C
:100590004C5123EA4C5350EA013518BF52EA033557
:1005A00041F4801143F4801338D0A0FB02CE4FF009
:1005B0000005E1FB02E506F00042E0FB03E54FF039
:1005C0000006E1FB03569CF0000F18BF4EF0010E31
:1005D000A4F1FF04B6F5007F64F5407404D25FEA2D
:1005E0004E0E6D4146EB060642EAC62141EA5551E0
:1005F0004FEAC52040EA5E504FEACE2EB4F1FD0C22
:1006000088BFBCF5E06F1ED8BEF1004F08BF5FEA9F
:10061000500E50F1000041EB045170BD06F0004651
:1006200046EA010140EA020081EA0301B4EB5C04FE
:10063000C2BFD4EB0C0541EA045170BD41F48011F6
:100640004FF0000E013C00F3AB8014F1360FDEBF1B
:10065000002001F0004170BDC4F10004203C35DAF7
:100660000C341BDC04F11404C4F1200500FA05F37A
:1006700020FA04F001FA05F240EA020001F000421B
:1006800021F0004110EBD37021FA04F642EB060191
:100690005EEA430E08BF20EAD37070BDC4F10C04BB
:1006A000C4F1200500FA04F320FA05F001FA04F27F
:1006B00040EA020001F0004110EBD37041F100016B
:1006C0005EEA430E08BF20EAD37070BDC4F1200576
:1006D00000FA05F24EEA020E20FA04F301FA05F2DE
:1006E00043EA020321FA04F001F0004121FA04F286
:1006F00020EA020000EBD3705EEA430E08BF20EA56
:10070000D37070BD94F0000F0FD101F0004640008F
:1007100041EB010111F4801F08BF013CF7D041EA11
:10072000060195F0000F18BF704703F00046520015
:1007300043EB030313F4801F08BF013DF7D043EAE6
:100740000603704794EA0C0F0CEA135518BF95EA9C
:100750000C0F0CD050EA410618BF52EA4306D1D123
:1007600081EA030101F000414FF0000070BD50EA42
:10077000410606BF1046194652EA430619D094EACC
:100780000C0F02D150EA013613D195EA0C0F05D1B6
:1007900052EA03361CBF104619460AD181EA03010A
:1007A00001F0004141F0FE4141F470014FF00000C2
:1007B00070BD41F0FE4141F4780170BD70B54FF05D
:1007C000FF0C4CF4E06C1CEA11541DBF1CEA1355DD
:1007D00094EA0C0F95EA0C0F00F0A7F8A4EB0504BF
:1007E00081EA030E52EA03354FEA013100F08880B6
:1007F0004FEA03334FF0805545EA131343EA12637F
:100800004FEA022245EA111545EA10654FEA002633
:100810000EF000419D4208BF964244F1FD0404F5EC
:10082000407402D25B084FEA3202B61A65EB030548
:100830005B084FEA32024FF480104FF4002CB6EB05
:10084000020E75EB030E22BFB61A754640EA0C0085
:100850005B084FEA3202B6EB020E75EB030E22BFC5
:10086000B61A754640EA5C005B084FEA3202B6EB06
:10087000020E75EB030E22BFB61A754640EA9C00C5
:100880005B084FEA3202B6EB020E75EB030E22BF95
:10089000B61A754640EADC0055EA060E18D04FEA53
:1008A000051545EA16754FEA06164FEAC30343EAF3
:1008B00052734FEAC2025FEA1C1CC0D111F4801FC0
:1008C0000BD141EA00014FF000004FF0004CB6E7B9
:1008D00011F4801F04BF01430020B4F1FD0C88BF58
:1008E000BCF5E06F3FF6AFAEB5EB030C04BFB6EB63
:1008F000020C5FEA500C50F1000041EB045170BD56
:100900000EF0004E4EEA113114EB5C04C2BFD4EB82
:100910000C0541EA045170BD41F480114FF0000E06
:10092000013C90E645EA060E8DE60CEA135594EA82
:100930000C0F08BF95EA0C0F3FF43BAF94EA0C0F85
:100940000AD150EA01347FF434AF95EA0C0F7FF4FA
:1009500025AF104619462CE795EA0C0F06D152EA4E
:1009600003353FF4FDAE1046194622E750EA410632
:1009700018BF52EA43067FF4C5AE50EA41047FF443
:100980000DAF52EA43057FF4EBAE12E74FEA4102A6
:10099000B2F1E04324BFB3F5001CDCF1FE5C0DD9DD
:1009A00001F0004C4FEAC0024CEA5070B2F1004F27
:1009B00040EB830008BF20F00100704711F0804F2A
:1009C00021D113F13872BCBF01F00040704741F4EF
:1009D00080114FEA5252C2F11802C2F1200C10FAF3
:1009E0000CF320FA02F018BF40F001004FEAC123D7
:1009F0004FEAD32303FA0CFC40EA0C0023FA02F37B
:100A00004FEA4303CCE77FEA625307D150EA013350
:100A10001EBF4FF0FE4040F44000704701F0004020
:100A200040F0FE4040F40000704700BF7BB972B94F
:100A30000029BEBF00204FF0004106E008BF00289B
:100A40001CBF6FF000414FF0FF3000F0BDB9ADF1B9
:100A5000080C6DE904CE002909DB002B1ADB00F03D
:100A60004DF8DDF804E0DDE9022304B070474042B0
:100A700061EB4101002B1BDB00F040F8DDF804E0E6
:100A8000DDE9022304B0404261EB4101524263EBD5
:100A900043037047524263EB430300F02FF8DDF845
:100AA00004E0DDE9022304B0404261EB41017047FC
:100AB000524263EB430300F021F8DDF804E0DDE986
:100AC000022304B0524263EB4303704753B94AB95F
:100AD000002908BF00281CBF4FF0FF314FF0FF3046
:100AE00000F072B9ADF1080C6DE904CE00F006F823
:100AF000DDF804E0DDE9022304B070472DE9F0479A
:100B0000089E04468846002B4BD18A42154667D979
:100B1000B2FA82F24AB1C2F1200701FA02F320FAD6
:100B200007F7954047EA030894404FEA154E230C17
:100B3000B8FBFEF71FFA85FC0EFB178843EA084353
:100B400007FB0CF1994209D9EB1807F1FF3080F04F
:100B50001B81994240F21881023F2B445B1AA4B2D8
:100B6000B3FBFEF00EFB103344EA034400FB0CFC25
:100B7000A44509D92C1900F1FF3380F00781A44561
:100B800040F2048102382C4440EA0740A4EB0C04F4
:100B900000271EB1D4400023C6E900433946BDE812
:100BA000F0878B4209D9002E00F0EB800027C6E9C0
:100BB000000138463946BDE8F087B3FA83F7002FC5
:100BC00047D18B4202D3824200F2FA80841A61EB51
:100BD000030301209846002EE0D0C6E90048DDE777
:100BE00002B9FFDEB2FA82F2002A40F08F80491B80
:100BF0004FEA154E1FFA85F80127B1FBFEFC230CC6
:100C00000EFB1C1143EA014308FB0CF1994207D982
:100C1000EB180CF1FF3002D2994200F2CD808446ED
:100C2000591AA3B2B1FBFEF00EFB101443EA0444C0
:100C300008FB00F8A04507D92C1900F1FF3302D2B8
:100C4000A04500F2B6801846A4EB080440EA0C4028
:100C50009FE7C7F1200CBB4022FA0CFE4EEA030EC0
:100C600001FA07F420FA0CF521FA0CF34FEA1E48BA
:100C70002543B3FBF8F92C0C08FB19331FFA8EFA45
:100C800044EA034309FB0AF49C4202FA07F200FA21
:100C900007F10BD91EEB030309F1FF3080F08780C9
:100CA0009C4240F28480A9F1020973441B1BADB23F
:100CB000B3FBF8F008FB103345EA034400FB0AFAE3
:100CC000A24508D91EEB040400F1FF336BD2A24504
:100CD00069D90238744440EA0940A0FB0289A4EBB8
:100CE0000A044C45C2464B4654D351D0002E69D01D
:100CF000B1EB0A0564EB030404FA0CFCFD40FC4074
:100D00004CEA0505C6E90054002747E7C2F1200375
:100D100020FA03F7954001FA02F021FA03F34FEAB3
:100D2000154E3843010CB3FBFEF71FFA85F80EFB96
:100D3000173341EA034107FB08F38B4204FA02F43C
:100D400007D9691807F1FF3C2FD28B422DD9023FFA
:100D50002944CB1A81B2B3FBFEF00EFB103341EAFB
:100D6000034100FB08F38B4207D9691800F1FF3CEF
:100D700017D28B4215D902382944C91A40EA0747CD
:100D80003BE73746304609E70746E7E61846FBE605
:100D90004145ABD2B8EB020A69EB0E0201381346AB
:100DA000A4E76046E9E7184695E76746D1E781463C
:100DB0007CE702382C4447E7ACF1020C2B442FE7C8
:100DC000384608E73746E9E6704700BF10F8012BC0
:100DD00011F8013B012A28BF9A42F7D0D01A704778
:100DE000034613F8012B002AFBD1181A013870476B
:100DF00001F0FF01102A2BDB10F0070F08D010F8CC
:100E0000013B013A8B422DD010F0070F42B3F6D1CF
:100E1000F0B441EA012141EA014122F007047FF0E8
:100E200000070023F0E80256083C85EA010586EA3F
:100E3000010685FA47F5A3FA87F586FA47F6A5FA7B
:100E400087F68EB9EED1F0BC01F0FF0102F0070287
:100E500032B110F8013B013A83EA010313B1F8D132
:100E60000020704701387047002D06BF3546033813
:100E7000073815F0010F07D1013015F4807F02BF4C
:100E8000013015F4C03F0130F0BC0138704700BF9D
:100E90007047704770477047B0F94E21B0F9F411B0
:100EA000B0F9F631B0F94C019F283CDD9F2921DCD7
:100EB0009F2A48DDA02A14BF052101219F2B2DDD8B
:100EC000A02B4FF0000014BF022204220CE09F2A46
:100ED0000CDDA02A14BF022104219F2B08DDA02BCA
:100EE00014BF02220422012003F092BE0021F4E785
:100EF0000022F8E79F2A0BDDA02A14BF052101215B
:100F00009F2B07DDA02B14BF052201220020EBE759
:100F10000321F5E70322F9E70522E5E7002010E0C9
:100F200001200322E0E79F29D1DD9F2A0DDDA02AC1
:100F300014BF022104219F2BF2DDA02B4FF00100F2
:100F4000EAD10246D0E70321B8E70021F3E7000029
:100F500010B5034B0360044600F050F9204610BD65
:100F60006867020810B50446FFF7F2FF204641F219
:100F70001C5122F023FC204610BD000010B5044691
:100F800000F044FA014B2360204610BD6867020858
:100F900000F0EDB8704704387047704710B5102165
:100FA000044622F00BFC204610BDA0F10400F5E73A
:100FB00010B500228260044AC16002F108042032A8
:100FC0000460426010BD00BF9C67020870470022A9
:100FD000026070477047704710B5034B03600446CA
:100FE00000F0A0FB204610BDCC67020810B50446F7
:100FF000FFF7F2FF2046982122F0E0FB204610BDCB
:1010000010B5044600F0A4FB014B2360204610BD40
:10101000CC67020800F087BB704704387047704700
:1010200010B51021044622F0C9FB204610BDA0F1E6
:101030000400F5E710B500228260044AC16002F1A5
:10104000080420320460426010BD00BFF867020847
:10105000704700F598730868496803C37047704784
:1010600000F090BC10B54FF4AE71044622F0A6FB20
:10107000204610BD10B50446D0F85801FFF7AAFF6E
:101080002046BDE8104010F0FFBA10B50446D0F875
:10109000400158B10368DB68984738B1D4F8400183
:1010A00003689B6898470023C4F8403110BD0000D6
:1010B00010B5044600F02AFC014B2360204610BD09
:1010C0002868020890F8252012B103685B69184768
:1010D00070470020704781807047C1807047018150
:1010E000704741817047704770477047704770473D
:1010F000C38810B4D21A83885DF8044BC91A0368F8
:1011000012B25B6D09B218474FF6FF7383814FF03F
:10111000FF3303621368C3611060704790F82520A5
:101120001AB190F8242002B11860704770477047D8
:1011300000207047B1F90430838001207047704768
:1011400080F82610704790F8260070470022028031
:1011500042808280C280704790F82C00704708B5AA
:1011600090F832300BB1FFF7ADFF08BD7047704704
:1011700070477047704730B4C56844686A100346CA
:10118000ED0704EB02009B6848BFA25830BC48BF83
:10119000D358184743682BB183682BB9C06800F057
:1011A00001007047184670470120704710B54C2168
:1011B000044622F003FB204610BD10B5482104462A
:1011C00022F0FCFA204610BD10B51021044622F092
:1011D000F5FA204610BD0B898A89D21A4B89C98835
:1011E000591A12B209B211F0C5BA10B5D1E90E23DD
:1011F00004460CF0EBFC204610BD000010B5034B7C
:10120000036004460EF0CCFC204610BDE06A0208E4
:1012100010B5064B036004460EF0C2FC204641F2B6
:101220001C5122F0CBFA204610BD00BFE06A020834
:1012300010B50446806A50B10368DB68984730B146
:10124000A06A036821469B68BDE81040184710BD9E
:1012500000F5D2738B4210B5044608D10368DB6AEF
:101260009847236820461B6BBDE81040184710BD07
:1012700070B504460D460DF083FBA06C58B10368B1
:10128000DB68984738B1A06C03682A4621469B6802
:10129000BDE87040184770BD612908B505D110F050
:1012A00049F9BDE8084000F07DBB08BD70B5036892
:1012B00004461B6B154698472368294620465B6BFE
:1012C000BDE87040184770B504461E46BDF9105081
:1012D000FFF7ECFF2368314620469A6B904723685E
:1012E00029462046DB6BBDE870401847012180F895
:1012F00025100B4901600022FF218280C2800281FB
:1013000042818281C28102824282C0E90522C26199
:101310000284428480F8242080F82610826270477C
:10132000507F020870B500238380114D114B03607C
:101330002A6892F85810064609B1D06C00B9906836
:101340000368DB6A98472B68B0FA80F4D86C6409AC
:1013500028B10368DB6A9847002808BF01242CB92C
:10136000054B064A06482C2123F0E4FA304670BDAE
:10137000B43E01207C6802081B6A0208146B020854
:10138000796A0208F8B51A4B018F1B888B42064612
:1013900029D9184B1B682BB9174B184A18486C21D0
:1013A00023F0C8FA13F81120164B1B6853F822508B
:1013B000154B186800F0C6FE2B6807469B6B284645
:1013C00098472B6804469B6C3946284698472B68FB
:1013D00014FB00F45B6A394628469847A4B22044BF
:1013E000A6F84600F8BD0023A0F84630FAE700BF93
:1013F000103F01200C3F0120986902084D6B020844
:10140000DA690208143F0120183F01202DE9F04F4E
:1014100004468DB0A246002511F0BCFFB84BE56331
:101420004AF8403B0DF130095046FFF75FFF4FF699
:10143000FF7229F8042D04F16C0B0123B149A4F8C3
:10144000922084F8942084F89130E1665846494609
:10145000A4F87050A4F87250A4F87450A4F8765010
:10146000A4F87850A4F87A50A4F87C50A4F87E50E0
:10147000C4E92055C4F88850A4F88C50A4F88E50C4
:1014800084F8905005930DF084FB04F1980304F167
:10149000C40718460393FFF729FF38460DF084F878
:1014A000994E04F59A7318460693FFF73BFF06F131
:1014B000240204F5A473C4F83C21C4F8346118462E
:1014C000C4F84051089204930CF0C0F9059B8F4971
:1014D00084F86C3104F5C873C4F8481118460793B2
:1014E00004F5D278FFF71EFF089AC4F89821C4F8D3
:1014F0009061C4F89C51404609920DF08BFC059B0D
:10150000834984F8C83104F5F873C4F8A411184667
:10151000C4F8EC5105930CF099F904F50E731846D4
:101520000893FFF7FFFE099AC4F8402241F20C53DA
:10153000E2180992774AC4F83862C4F84452E2507B
:10154000099B754A5C6041F214534FF49651E25086
:1015500041F2185304F51370E5500EF017FBF02319
:101560002A465046009329464FF4A073FFF7ABFE7E
:10157000261D4FF07F43A3665146304609F026FCF6
:101580002A4629465846FFF791FE03234946584606
:10159000ADF82C304FF01B0A0DF0FBFA59463046DF
:1015A00009F014FCD5224FF4A07329460398CDF816
:1015B00000A0FFF788FE594BC4F8C03003993046AD
:1015C00009F004FC4FF4A073D52229463846CDF823
:1015D00000A0FFF778FE4FF0FF33C4F84031A4F8C5
:1015E0004431069BC4F8EC302A46294638460DF0B3
:1015F000F1F82A464FF42F5138460DF0F6F8D4F89A
:101600000031402B05D04023C4F8003138460CF09F
:10161000EBFF384600210DF0F3F84FF0280A394669
:10162000304609F0D3FB534678220498CDF800A049
:10163000A021FFF748FE3A4BC4F89C314EF6041344
:1016400000254FF420774FF4345BA4F8A031079BBA
:10165000C4F870310499C4F874713046C4F87871D4
:10166000C4F87C71C4F88851C4F88051C4F884B1BE
:1016700009F0ACFB4046C3220F21FFF717FE4A4694
:1016800001230DEB0A014046ADF82C30ADF828508F
:101690000DF0D4F94046A4F8DC51FFF773FE4FF08B
:1016A000FF39099BC4F8CC3141463046C4F8E0917B
:1016B000C4F8E49109F08AFB53462A462946059866
:1016C000CDF800A0FFF7FFFD089BC4F81C72304660
:1016D000C4F82072C4F82472C4F83052C4F82852F6
:1016E000C4F82CB2C4F84492A4F84892C4F8183252
:1016F000059909F06BFB20460DB0BDE8F08F00BFE7
:10170000E06A0208B87F02083C7C02089C68020874
:10171000146902088869020851120008352A2DFF51
:101720002323EBFF7047704710B59821044622F041
:1017300045F8204610BD70B5036804469B6B1546FE
:101740009847236829462046DB6BBDE87040184760
:101750002DE9F0410446254611F01CFE00261A4BE7
:10176000E66345F8403B04F16C072846FFF7BEFDF1
:101770003846FFF7BBFD31462846FFF7ACFC314643
:101780002846FFF7AAFCF02228464FF4A071FFF785
:10179000D2FF04F104084FF07F43A3662946404678
:1017A00009F014FBF022384626674FF4A071FFF7CA
:1017B000C2FF064BC4F894304046394609F006FB98
:1017C0002046BDE8F08100BF906B0208148F10FF27
:1017D000704770477047416070477047012303723C
:1017E000704770477047704770477047704710B434
:1017F000C468416862100346E40701EB02009B687D
:1018000048BF8A585DF8044B48BFD358184743680F
:101810002BB183682BB9C06800F0010070471846EF
:1018200070470120704710B51421044621F0C6FF0F
:10183000204610BD10B50C21044621F0BFFF204604
:1018400010BD10B54FF4AE71044621F0B7FF20462D
:1018500010BD10B51021044621F0B0FF204610BD88
:1018600010B50FF067FE0368BDE81040DB6B18474A
:1018700070B50446B2B0C0221C4902A823F0CAF8D1
:10188000237C2F2B03D90123237232B070BD33B9CF
:10189000174B1B781BB10FF04DFE0FF051FE0325C7
:1018A000013DF2D0237C302BEFD832AA02EB830328
:1018B000608953F8C06CE389A18996FBF3F203FBBE
:1018C000126313FB00F312FB01F2ADF80400606831
:1018D000ADF80610ADF80030ADF802200368694697
:1018E0001B699847237C01332374D9E754660208A7
:1018F000B03E0120044B1B6893F858200AB1D86C05
:1019000000B99868704700BFB43E0120F8B504469E
:1019100017460E460FF0F8FE164BC4F854711C60C3
:10192000154B2360154BC4F84431154BC4F858616E
:1019300000251868C4F83C51C4F84051C4F8485117
:10194000C4F84C51C4F85051036829469B68984725
:10195000284600F0BDFBFFF7CDFF19F028FEFFF78A
:10196000C9FF19F09FFEFFF7C5FF19F0A7FE20463B
:10197000F8BD00BF083F0120DC6B0208C46B020801
:10198000B43E0120064BC0F84C310023C0F8503162
:1019900000F5A273C0F84801C0F84031704700BF9D
:1019A000091B0008064BC0F84C310023C0F8503129
:1019B00000F5A273C0F84801C0F84031704700BF7D
:1019C000AD1C00082DE9F04707469068DDF820A01F
:1019D000994603681B6A88461546984741F21B538F
:1019E000984205D8424B434AA321434822F0A2FF24
:1019F000686803681B6A98470F2803D83F4B3D4A25
:101A0000A421F2E7E86803681B6A98470B2803D80B
:101A10003B4B384AA521E8E70FF08CFD04300FF06E
:101A2000D6FDD9F8000010B10368DB689847D9F8F3
:101A3000000010B103681B689847386810B103684C
:101A40005B699847D8F8000010B103685B68984755
:101A5000386810B103681B689847D8F8000010B1C7
:101A600003689B689847E868036800215B6A9847A9
:101A7000044620B1002343600372224B0360A86830
:101A8000036800215B6A9847064608B1FFF776FABB
:101A90006868036800215B6A9847054610B13146C3
:101AA000FFF786FAC9F80040C8F800503E60E5B17B
:101AB0002B1DCAF80030C5F808A03368F56330461E
:101AC000DB6898472B6828461B68984721463046B4
:101AD00011F00CFE236820461B69984723682046B6
:101AE0005B6998472846BDE8F0872B46E1E700BFD1
:101AF000706C0208856E0208FE6C02083F6D0208D9
:101B0000E26D0208306C020807B5D0F85831009336
:101B1000D0F85421044B00F59E710448FFF752FFA2
:101B200003B05DF804FB00BFFC3E0120F83E01203D
:101B30002DE9F04706469068DDF820909846036846
:101B40001B6A0F4615469847972805D84F4B504AB1
:101B5000A321504822F0EEFE686803681B6A98478C
:101B60000F2803D84C4B4A4AA421F2E7E8680368DF
:101B70001B6A9847132803D8484B454AA521E8E734
:101B80000FF0D8FC04300FF022FDD8F8000010B19F
:101B90000368DB689847D8F8000010B103681B6839
:101BA0009847306810B103685B699847386810B18E
:101BB00003685B689847306810B103681B689847F2
:101BC000386810B103689B689847E868036800218B
:101BD0005B6A98470446A8B10023314A4360037208
:101BE0000374304B02601A882F4B1B889A4241D9EC
:101BF0000732D21042810533062293FBF2F3838130
:101C00000823C381A868036800215B6A984782465D
:101C100008B1FFF7F5F96868036800215B6A984727
:101C2000054610B15146FFF705FAC8F800403D607F
:101C3000C6F800A045B32B1DC9F80030C5F80890C0
:101C4000DAF80030CAF83C505046DB6898472B68F9
:101C500028461B6898472146504611F047FD2368E7
:101C600020461B699847236820465B6998472846A9
:101C7000BDE8F08707330621DB100532838192FB34
:101C8000F1F2C1814281BDE72B46D5E7706C0208B5
:101C9000896F0208FE6C02083F6D0208E26D0208BF
:101CA000546C0208A63E0120A83E012007B5D0F8DA
:101CB00058310093D0F85421044B00F59E7104482C
:101CC000FFF736FF03B05DF804FB00BFFC3E0120C8
:101CD000F83E012013B5002249B102AB019203F88E
:101CE000052D0268946801AAA04702B010BD0846FD
:101CF000FBE7C0897047008A7047C08870478088BA
:101D00007047807A00F07F007047807AC009704782
:101D1000002070479FED010A704700BF00000000DF
:101D2000406A7047806A704770478B88C0690A684C
:101D3000DB0A50F823001044704710B5C2B1137B82
:101D4000B3B1547BD27A240204F4E0641443026AEF
:101D500098B202EB840213888B4202D192F90200FE
:101D600010BD05D8013880B204320028F3D1F7E75E
:101D70000020F5E710B52C21044621F01FFD204678
:101D800010BD000030B58BB00446BDF8605008951A
:101D9000BDF85C5007959DF8505006959DF84C5045
:101DA00005959DF8485004959DF8445003959DF87D
:101DB000405002959DF83C500195BDF83850009573
:101DC00011F020F8064B2360159BE361169B2362FC
:101DD000199B63621A9BA36220460BB030BD00BF03
:101DE0009870020830B5174D2C78BFF35B8F14F054
:101DF00001048FB023D1284621F0B8FCF8B13F236D
:101E00000993114B0893114B07930123CDE9054327
:101E100004930423CDE902430A230B220C490093C7
:101E2000CDE90B440A9401940A48FFF7ABFF28461A
:101E300021F0A8FC084A0949064821F0BAFC0548E7
:101E40000FB030BDFC040020188E0208148E02086A
:101E50003C8C02080005002000000020291D00081D
:101E6000704710B50821044621F0A8FC204610BD9B
:101E700010B5002404600C6014601C6010BD0000EC
:101E800030B5174D2C78BFF35B8F14F001048FB081
:101E900022D1284621F06AFCF0B13F230993114B6F
:101EA0000893114B11490A940122CDE906430423FA
:101EB000CDE9033228230093CDE90B440594CDE905
:101EC00001440B48FFF75EFF284621F05BFC094AFE
:101ED0000949074821F06DFC05480FB030BD00BF2F
:101EE0002C050020108E0208208E0208F08D0208BA
:101EF0003005002000000020291D000830B5174DD6
:101F00002C78BFF35B8F14F001048FB022D12846E8
:101F100021F02CFCF0B13F230993114B0893114B96
:101F200011490A940122CDE906430423CDE9033285
:101F300014230093CDE90B440594CDE901440B48EB
:101F4000FFF720FF284621F01DFC094A09490748F0
:101F500021F02FFC05480FB030BD00BF5C0500200C
:101F60001C8E0208248E0208008E020860050020E4
:101F700000000020291D0008704710B50421044608
:101F800021F01CFC204610BD012908B508D003D360
:101F9000022909D0002002E000F012F8006808BD14
:101FA00000F00EF84068FAE700F00AF88068F6E7FB
:101FB000004870471C7102080420704701207047D8
:101FC000004870478C05002010B5FFF797FF044CC0
:101FD0002060FFF755FF6060FFF704FFA06010BDB1
:101FE0008C05002000207047002070470EB403B518
:101FF00003AB002153F8042B019310F00FFA02B049
:102000005DF804EB03B070470CB407B504AB53F8AC
:10201000042B019310F002FA03B05DF804EB02B058
:102020007047000010B5436C044673B3038F2BB99F
:10203000184B194AC521194822F07CFCC38E00EBCD
:1020400043035B8C0BB312F090F8238F012B03D862
:10205000134B144ACB21EEE7E28E531C9BB2092BA3
:10206000194688BFA3F10A0104EB410140F63F1075
:10207000498C814209D10A2B04EB420228BF00237C
:1020800004EB4303508C588451842046BDE8104033
:1020900011F06EBF6C710208997202087571020826
:1020A000B9710208C771020811F029BF10B586B0D6
:1020B00002AC84E806001A460AAB05930193099B1B
:1020C00000932146089B0EF0D3FD06B010BD000022
:1020D00038B5D8B9114B12481B681249BBB11A6800
:1020E0009C681A4402605A681A440A601C446CB125
:1020F0000D4B00221A80FFF763FF0546FFF75EFFD6
:102100000A4B1C600A4B1D600A4B188038BD0A4BF5
:1021100003600A4B0B600A4B1C68E8E79805002037
:102120009C050020A0050020A40500200C3F0120F4
:10213000143F0120103F0120F4400808E84008083F
:10214000F0400808044B1B6853F82100034B1B6840
:1021500003EB4000704700BFA00500209C05002055
:10216000012380F8781080F879307047002070479C
:102170004164034B003118BF01211970704700BF43
:10218000B13E012000207047836B0BB10846184711
:1021900070474FF6FF707047406803689B691847A7
:1021A0007047704710B50022B1F90840B1F90A1024
:1021B000028042808480C18010BD0177704780ED2D
:1021C000080A704780F82410704780F8251070477F
:1021D00001207047983070478C30704784307047CA
:1021E000034B902283F85A2383F85823704700BF8B
:1021F00000E100E0094A0A49D3680A48C3F30A0328
:10220000013B9BB20B801169C1F30A0101390180C6
:102210001364536B43F0010353637047006801403C
:10222000AE050020AC050020014B986A704700BF46
:1022300084680140024B0122996243F8602C704788
:10224000846801407047704710B52C21044621F086
:10225000B5FA204610BD10B5BC21044621F0AEFAF7
:10226000204610BD10B531B90A4B0B4A0B4840F25D
:10227000D22122F05FFBC0E90F120032084918BFDB
:1022800001220A7002681946D2F88C20BDE810407D
:10229000104700BF6B74020825750208A37402087A
:1022A000B03E012008B5094B1B888B4203D8084B70
:1022B0001B88934205D9074B074A08489E2122F004
:1022C00039FB074B1980074B1A8008BDA63E012039
:1022D000A83E012008740208E2740208A3740208F0
:1022E000AC3E0120AE3E012070B5044609F059F81D
:1022F00023685D6E0FF01EF901462046A84723684B
:10230000054AD3F888502046AC460023A2F5163182
:10231000BDE87040604700BF005802D009F028B8FF
:1023200009F032B808F0EEBF09F04FB910B5044615
:1023300009F076FD23682046D3F8AC30BDE81040A4
:10234000184790F87A301BB1406803681B6818473B
:102350001846704710B590F8784090F834100C4B40
:102360008C421A7809D03AB90A4A0B49148808886D
:1023700010800C8001221A7010BD002AFCD0054A82
:1023800005491488088810800C800022F3E700BFFC
:10239000AA3E0120A63E0120A83E0120034B4FF09B
:1023A00080629A604FF080729A60704700E100E0AE
:1023B000084B4FF08062C3F88820BFF34F8FBFF304
:1023C0006F8F4FF08072C3F88820BFF34F8FBFF339
:1023D0006F8F704700E100E070B5294E3578BFF38C
:1023E0005B8F15F0010548D1304621F0BFF9002878
:1023F00043D0244C244B256104F13400C4E900355A
:10240000C4E90255E58425856585A58510F03DFC68
:1024100004F158000BF020FF1C4BA36520461C4B19
:1024200040F8843BFEF77EFF1A4BC4F88430243317
:10243000C4F88C306423A4F8A0300023C4F8AC3076
:10244000C4F8B030C4F8B430C4F8B8303046124BD9
:10245000C4F89050C4F89C50C4F8A45084F8A85014
:1024600084F8A95084F8AA50C4F8983021F08AF969
:102470000A4A0B49204621F09CF9024870BD00BF72
:10248000A8050020B0050020887C02084C730208D3
:10249000C47302083C7C02081C7C02080000002077
:1024A0004522000810B5144C236823B3134B144A7B
:1024B0001B6C11888B4213D1124B198805F074FEE6
:1024C000226892F86A30013382F86A3000F07EFAAE
:1024D000206809F0A5FC0020BDE8104000F0ACBC6D
:1024E00005F062FE206803681B6A98470020BDE87B
:1024F000104000F0CBBC10BDB43E0120006801408C
:10250000AE050020AC05002003685B6C1847012075
:10251000704703689B6A1847FEE7000082B00023FB
:1025200001930E4B1A6B42F400021A631A6B02F409
:1025300000020192019A1A6942F400021A611A69B2
:1025400022F400021A61064B064A1A61064A5A61D1
:10255000064B4FF080629A6002B07047003802402C
:10256000404C0120792500081925000800E100E011
:1025700040F2EF3070470000024B1B685868036858
:102580005B691847B43E012008B50B280BD8DFE87B
:1025900000F01206100A0A0A0A08080808080120B2
:1025A00008BD0520FCE7054B054A06486F2122F0CF
:1025B000C1F90020F4E70220F2E700BF8D750208A0
:1025C0005E760208A875020808B50A2809D8DFE86F
:1025D00000F010060E08080808060606060001208E
:1025E00008BD054B054A0648902122F0A3F90020BA
:1025F000F6E70220F4E700BF8D750208A87602080E
:10260000A8750208F8B50C46487FFFF7BDFFA77F05
:1026100005463846FFF7B8FF06463846FFF7D4FFB1
:10262000A38A628BD21A494B1A64A18A628B521A0E
:102630009A61A18A228B521A1A615863A18AE28A8E
:1026400042EA01425A642269DA636268DA60226807
:10265000402A70D010D8042A3BD0202A6BD0237F88
:1026600045EA0365394B45F40035DD61617FA27FA2
:10267000914267D0364A4BE0B2F5807F1BD0B2F56D
:10268000007F23D0802AEAD1A068021DDA62227F6F
:1026900045EA026545F40035DD615E6222695A61F2
:1026A0000278EAB1012A35D02A4B2B4A2B484FF445
:1026B0008D7122F03FF9217F294A42EA0162DA61F5
:1026C000E2681A625E6222695A6120E0217F254A2F
:1026D000F3E7227F45EA026545F40035DD61F1E765
:1026E000D9694288501E21F47F4222F0100242EA4A
:1026F0000022DA610121154BDA6942F02002DA6129
:10270000DA699206FCD410229A600029B2D0164AE7
:102710001A60F8BDDA694088217F22F47F4222F0F6
:102720001002013842F01002FF3942EA002218BFBD
:102730000121DA61DFE7237F45EA036545F40035CF
:10274000024BCBE742F20132E2E700BF00B00240A9
:10275000012301007375020820760208A87502089B
:102760000A000200090002000123020010B5887F60
:102770000C46FFF729FF1C4B5863A18AE28A42EA04
:1027800001425A642269DA63628BA18A521A1A647E
:102790002268082A16D1A18A628B521A9A61A18AEC
:1027A000628B521A1A615862217F104A42EA016212
:1027B000DA61E2681A6222695A612269DA600C4AB7
:1027C0001A6010BD0022D8611A61E1680A0A48093E
:1027D00002F4784200F4FC600243C1F3C4010A43EE
:1027E0009A63044AECE700BF00B002400900010010
:1027F0000123020001230300054B0360054B4FF04A
:102800008062C3F88820BFF34F8FBFF36F8F70478C
:10281000D875020800E100E010B50446FFF7ECFFB0
:1028200020464FF45A6120F0C9FF204610BD000039
:1028300070B505462C460A4B0C30002668602E7297
:102840006E7244F8203B6022214609F041FC05F5F8
:102850005A63E6602434A342FBD1284670BD00BF12
:10286000D8750208034B1A68D207FCD423229A6059
:10287000704700BF00B002407047000030B50F4CF9
:102880002568ED07FCD423250904A56041F001016A
:102890000225FF2B65636164E0630AD00849656225
:1028A00041EA0363E361074B22626061E0602360F9
:1028B00030BDE561039BA363034BF8E700B0024022
:1028C00009000100010002000100030030B50E4CB8
:1028D0002568ED07FCD423251204A56042F001020F
:1028E0000225FF2B65636264E063E16008D01B068C
:1028F00043F00213E361054B65626061236030BD04
:10290000034BE3610123F9E700B00240010002003C
:10291000020002FF30B50B4C2568ED07FCD42325DF
:1029200012041B06A56043F40033022542F00102A5
:1029300065636264E063E160E361034B656260616B
:10294000236030BD00B0024001000200012108B543
:102950000022084607F046FB0A4B186028B90A4BCC
:102960000A4A28210A4821F0E5FF0022042101201B
:1029700007F0D8FB074B186018B9074B034A2C2106
:10298000F0E708BD70060020F3760208A77702087A
:102990003C7702086C06002065770208024B4FF076
:1029A000FF31186807F068BB70060020014B1868FB
:1029B00007F08EBB70060020024B0021186807F05C
:1029C0005BBB00BF70060020FFF7F0BF034804495F
:1029D000006800231A4607F0E1BB00BF6C06002028
:1029E0000400002013B5084C00231A4601A92068F2
:1029F00007F006FC4FF0FF33002201A9206807F022
:102A0000FFFB02B010BD00BF6C060020704770478E
:102A1000704770470120704714207047142303FB50
:102A2000010008307047142303FB01000830704791
:102A30000120704741F21C50704741F21C5303FBC8
:102A400001000830704741F21C5303FB01000830BD
:102A50007047012070471020704700EB01100830CC
:102A6000704700EB0110083070470846FEF78ABF38
:102A700010B5034B0360044608F092F9204610BDE0
:102A80004878020810B50446FFF7F2FF20461C21E3
:102A900020F094FE204610BD10B5034B03600446A1
:102AA00008F07EF9204610BD1478020810B50446DF
:102AB000FFF7F2FF204641F2245120F07FFE20462E
:102AC00010BD000010B5034B0360044608F068F920
:102AD000204610BDE077020810B50446FFF7F2FF6C
:102AE0002046182120F06AFE204610BD10B5094B83
:102AF0000360044600F5AA501030FFF7B9FF04F157
:102B00002C00FFF7C9FF04F11400FFF7DBFF20469C
:102B100010BD00BF7C78020810B50446FFF7E6FF41
:102B2000204641F2CC6120F049FE204610BD000055
:102B30002DE9F341FFF73CFA0546FFF73DFA002483
:102B40000146234628462246009411F0E1FD274B1A
:102B5000274A1A602046FFF7BBFA264B264A274D24
:102B60009A60274811F03CFD2B78BFF35B8FDB07A1
:102B700036D4284620F0FAFD002831D0214C224FCF
:102B8000224BE76007F1200604F1140004F12C0841
:102B90006060C4F808802661236008F003F91C4BCC
:102BA0006361404608F0FEF81A4BE362384608F0CD
:102BB000F9F8194B3B6007F11C00FEF708FA2246B2
:102BC00007F11C013046FEF773FA3046FEF7DAFED5
:102BD000284620F0D7FD114A1149204620F0E9FD92
:102BE000104802B0BDE8F04100F0EEB8183F0120F7
:102BF000802B0020842B0020441D00207406002020
:102C00000800002078060020C81B00207C780208FD
:102C1000E0770208147802084878020800000020D3
:102C2000ED2A0008042B002070470000014800F046
:102C3000D9B800BF042B002010B50421044620F0B1
:102C4000BDFD204610BD10B58C21044620F0B6FD18
:102C5000204610BD10B51C21044620F0AFFD2046D3
:102C600010BD10B57C21044620F0A8FD204610BD03
:102C70002DE9F0413E4C3F4D3F4F404B40492B60CA
:102C80002246284620F095FD3E4EDFF83881384632
:102C9000FFF7CEFD22463C49384620F08AFD3046FB
:102CA00016F032FE22463949304620F082FD404679
:102CB0000FF08CFD22463649404620F07AFD224630
:102CC0003449354820F075FD344835498166354929
:102CD000C56000230122344D0385C0E90176C0E9B7
:102CE0000433C0E90633C0E9083380F82A30C362F0
:102CF0000386C0E90E33C0E9103380F8483080F80D
:102D0000492080F84A3080F84B30C0E913334365DE
:102D100080F85830C0E91733436680F86C3080F88B
:102D20006D3080F86E3080F86F300860F0212980B7
:102D30001E4D80F8703029801D4D43674FF4A071FF
:102D400029801C4D80F8783029801B4980F8793023
:102D50000B701A4B80F87A2080F87B2080F83420A2
:102D6000036022461649BDE8F04120F022BD00BFB5
:102D700000000020601D0020641D0020687902080A
:102D80000D2A0008842B0020F92700080F2A0008CC
:102D9000112A0008791F000808000020042B0020D9
:102DA00001000001B43E0120A63E0120AC3E0120FE
:102DB000A83E0120AE3E0120AA3E012090780208E4
:102DC000132A0008441D002010B50446FFF78CFAB2
:102DD00023680349D3F88C302046BDE810401847DB
:102DE00000B004D008B503680446D3F88030984793
:102DF000236820469B6F9847FFF7F4FD2368204621
:102E00001B6F9847292001F0FFF9FFF7EBFD2368BE
:102E100020461B6F9847F8E7FFF706BAFFF70ABA94
:102E2000FFF780BAFFF7DCB9FFF7B8BAFFF7C0BA0F
:102E3000FFF7E0B908F060BA032821D8DFE800F016
:102E4000020B12190F4B1A68B2FA82F252090421CE
:102E50000D4804F05BBB0B4B5A68B2FA82F2520980
:102E60000821F5E7074B9A68B2FA82F2520910215D
:102E7000EEE7044BDA68B2FA82F252092021E7E762
:102E8000704700BF102C002000100240032821D8FA
:102E9000DFE800F0020B12190F4B1A68003218BF5E
:102EA000012204210D4804F031BB0B4B5A6800325B
:102EB00018BF01220821F5E7074B9A68003218BFB6
:102EC00001221021EEE7044BDA68003218BF01221C
:102ED0002021E7E7704700BF102C002000100240BF
:102EE00003280DD8DFE800F00206080A042105488F
:102EF00004F011BB0821FAE71021F8E72021F6E7DA
:102F0000704700BF0010024008B5032811D8DFE861
:102F100000F0020A0C0E0421074804F0F1FA431EE7
:102F20005842584108BD0821F6E71021F4E7202156
:102F3000F2E70020F3E700BF0010024070B5084D33
:102F400000240126E0B2FFF7DFFF28B155F8243056
:102F5000012B18BF45F824600134052CF2D170BD57
:102F6000102C002038B50C4B0C4C18800C4B8220D8
:102F700019806368984740F6110398420AD1094DB9
:102F800023682C60822098472B688220DB68984752
:102F9000002038BD0120FCE7202C00202400002068
:102FA000222C0020242C00204FF4A071F020FFF7E9
:102FB000D9BF0000F7B5324D2B6804461B6982204B
:102FC000984780B22080002852D02B680DF106026D
:102FD0005B6901A982209847BDF8062040F674631A
:102FE0009A4247D9ADF80630BDF806209B1A9BB22D
:102FF0000B22B3FBF2F333B1224A12889A423CBF50
:1030000002F1FF339BB2BDF8042040F6B8318A428A
:1030100095BFC2F57162C2F56D620E320832ADF82D
:103020000420BDF804100F22B1FBF2F131B1164AB1
:1030300012888A423CBF02F1FF3189B2134E144D0F
:1030400030682F6882B2814288BF8A1AB8B298BFAE
:10305000521ABB428CBF181AC01A92B280B20244F4
:10306000052AC4BF31602B60336863802B68A3805E
:1030700003B0F0BDB32A9CBFB422ADF80620B3E77D
:10308000242C0020222C0020202C0020282C002082
:103090002C2C002037B568460D461446FFF78AFFF2
:1030A000BDF8000030B1BDF802302B60BDF804302F
:1030B0002360012003B030BD2DE9F04F2DED048BCE
:1030C000A94A13685E6AA94B19688BB04F6A0092CF
:1030D00098463B463446A64A019310684FF0FF31AC
:1030E00005F0D6FD009B1A68566A6FF00042341B4B
:1030F00066EB06050023A242AB41019B02DA0034D5
:1031000045F1FF359B494FF0FF328C4275EB0202CF
:1031100000DA0034D8F80020576A6FF00042B7EBAD
:10312000030A67EB070B0023524573EB0B0303DA2B
:103130001AF1000A4BF1FF3B8E4A4FF0FF339245E4
:103140007BEB030301DA1AF1000A8B4D8B4B95EDF3
:10315000009AD3F800B0B8EEC97AF1EE047A87EE9F
:10316000270AC4F10009CAF1000A07EE10BAB8EE46
:10317000C77AC7EE279A07EE909AF8EEE77A9FEDA6
:10318000807A77EEC07AB0EE478AF0EEE77AF4EE16
:10319000C77AF1EE10FA05DD20F05CFBFDEEC07A97
:1031A00017EE909A07EE90AAF8EEE77A77EEE97AB2
:1031B000F0EEE77AF4EEC87AF1EE10FA07DDB0EE41
:1031C000690A20F047FBFDEEC07A17EE90AA6D4821
:1031D0006D4C0278DFED6D8A54F8221044F822908D
:1031E00019EE103AA3EB010E694B53F8221043F885
:1031F00022A0ABEB010C614BDFF8B4B10EEB09017F
:103200000CEB0A041C60296005230132DFF8A4A13D
:1032100092FBF3F505EB8505521B94FBF3F402706A
:1032200091FBF3F0DAF80030DFF88C91594D03444C
:10323000CAF80030D9F800302344C9F80030FDF74F
:1032400029F945A3D3E90023FDF78EF90022524B5B
:10325000FDF78AF942A3D3E90023FDF7AFFAFDF7A2
:1032600095FB28602046FDF715F93BA3D3E9002321
:10327000FDF77AF90022484BFDF776F938A3D3E938
:103280000023FDF79BFAFDF781FB4449019108609B
:1032900095ED008A91ED000AD1ED007AD5ED006A36
:1032A0009BED027A77EEE67ADFED3D6A67EEA67A6D
:1032B00038EE008AA7EEA87A34469FED3A0A8BEDE5
:1032C000027A28EE008A9BED020A20F07BFAB0EE2B
:1032D000409A9BED020A20F0EDFADBED007A324BCA
:1032E0000199188828EE097A28EE000AE7EE287A74
:1032F0003B46CBED007ADBED017AE0EE287ACBEDB0
:10330000017A00283FF4E7AE284C238801339BB2B2
:10331000984223803FF6DDAE00232380DAF8004098
:10332000D9F800C02D68D1F800E0DBF80000DBF828
:103330000410DBF808300595CDE906E0CDE9081367
:1033400003AA1C2140F20310CDE9034C00F07AF9E6
:10335000BFE600BFAFF30080182D4454FB21194095
:10336000000000E04D62503FB44A01201C4A012099
:103370001C49012001000080702C0020742C0020CA
:103380000000C842582C0020302C00206F12833AD5
:10339000442C00207C2C00200000503F802C00207A
:1033A00052AFA3406210D83E7A2C0020782C002027
:1033B000642C00205C2C0020602C002000B53C21F7
:1033C0008BB0174802F0E0F93C21164802F0DCF916
:1033D00003220021012005F0EDF9134B186040B9DC
:1033E0004FF0500383F31188BFF36F8FBFF34F8FFC
:1033F000FEE70E4802F08EF92022002102A821F0FB
:1034000014FB0B4B01934FF400722823CDE90623E4
:10341000002101AA074806F079FD0BB05DF804FB16
:10342000B44A01201C4A01201C490120AC4B012058
:1034300078790208B9300008024B1880024B00224C
:103440001A8070477A2C0020782C002010B1044B91
:103450001B68036011B1034B1B680B60704700BF12
:103460007C2C0020802C0020054BD3F8882042F4CF
:103470007002C3F888204FF000629A60704700BF66
:1034800000ED00E0014B01221A707047842C0020EF
:10349000012803D1024B1A7802B91870704700BF97
:1034A000852C002080B5144C144D154F2378D3B1D2
:1034B000002601224FF480412846267004F026F8A9
:1034C00032463146062000F0BDF8384601F08EFB4A
:1034D0000C4E33785BB100224FF48041284604F053
:1034E00015F8002333700A2006F059FDDEE70A20A4
:1034F00006F055FDEDE700BF852C002000180240C6
:1035000095790208842C0020002301600281436029
:1035100070478288C088131A584258417047838880
:103520000189C088013393FBF1F201FB12331B1AAE
:1035300058425841704738B504460D46FFF7EFFF33
:1035400060B9A3882268D554A3882189013393FBED
:10355000F1F201FB1233A380012038BD0020FCE70B
:10356000C38882889A420CD00268D35C0B70C388EF
:103570000189013393FBF1F201FB1233C380012077
:10358000704700207047000008B54FF400720A49E8
:103590000A48FFF7B9FF4FF4007209490948FFF7DD
:1035A000B3FF094B09490A4800221A70BDE80840D8
:1035B000012203F0A6BE00BF0F2D0020102F002017
:1035C0001D2F002020310020862C00201C2F0020E1
:1035D000644A012070B50D46044640B339B3012258
:1035E0004FF400511248013D03F090FF661E2C4439
:1035F000104DA64210D1104B1A78C2B901240F49C0
:103600000C481C70FFF7ACFF88B122460B490C48F0
:10361000BDE8704003F089BC2846FFF780FF002812
:10362000FAD116F8011F2846FFF785FFE1E770BDC4
:103630000018024020310020862C00202C31002070
:10364000644A01202DE9F04F01F106081FFA88F8BD
:1036500083B008F107039146DB086A46A2EBC30377
:1036600000AF9D464A238DF80030C5B2030A0E0A0A
:103670005FFA81FA0C46EB468DF801308DF8025066
:103680008DF803608DF804A011B3B9F1000F1FD0BD
:103690000A460DF1050049467B6021F0BBF9621D29
:1036A0007B6892B285F04A055D408AEA050575405F
:1036B0004946A1EB09039BB29C420BD80BF8025080
:1036C00041465846FFF786FF0C37BD46BDE8F08FF0
:1036D0000522E7E711F8013B5D40EAE710B50B4B27
:1036E00002689A4210D10A4C0A484FF4804103F014
:1036F00012FF21780848FFF71EFF214601220748E4
:10370000BDE8104003F0FDBD10BD00BF0048004003
:103710001C2F002000180240102F0020644A0120B6
:1037200008B50D4B02689A4215D10C490C48FFF7B9
:1037300017FF024630B1012208490A48BDE8084097
:1037400003F0F3BB084B18704FF400510748BDE875
:10375000084003F0DBBE08BD004800402C310020CB
:1037600020310020644A0120862C002000180240ED
:1037700030B50238A1B00C46154607280AD8DFE854
:1037800000F00B040927092A0940002211460420F1
:10379000FFF758FF21B030BD0029FBD08022002167
:1037A000684621F042F97F2C2246294628BF7F2215
:1037B000684621F02FF918496846FDF707FB0028F5
:1037C000E8D101224FF40051144803F09FFEE1E7D5
:1037D000FFF758FEDEE780220021684621F025F938
:1037E0007F2C28BF7F2422462946684621F012F903
:1037F00020AB1C446846002304F8803C00F096FD92
:10380000C8E70C29C6D1536800EE903A136800EE61
:10381000103A01F081FBBDE79E79020800180240D2
:10382000F8B52E4C23780246062B50D8DFE803F07B
:103830000410161C212A38004A2808D10123284ADE
:10384000237000231380274A1380274A1380F8BD72
:10385000234B02021A8002232370F8E7204B1888BA
:1038600002431A800323F7E71E4B02021A80042347
:10387000F2E71C4B188802431A800AB90623EBE7CB
:103880000523E9E7184B19887F299FBF481C18803A
:10389000164842541A88134B1B889A42EED2D6E738
:1038A0000F4B124F18880F4B198880EA010383F0E1
:1038B0004A0383EA102383EA1123DBB20025AEB268
:1038C000B14206D89A4202D1084AFFF751FF0023BD
:1038D000C2E7EE5D01357340F1E700BF0E2D002019
:1038E000882C00200C2D00200A2D00208A2C00207E
:1038F00013B5094C0848FFF70CFE08B102B010BD23
:103900000DF107012046FFF72BFE0028F2D09DF8AD
:103910000700FFF785FFEDE7102F002008B5FFF740
:10392000E7FF0A2006F03BFBF9E7000070B588B01E
:1039300000230293204B1A6C42F010021A641B6C95
:1039400003F010030293064601A903A8029B01F0AD
:1039500035FE069B4BBB01F011FE184C184B236043
:1039600040F2E733E360174BB0FBF3F0013800237C
:10397000606020462361A360A36102F069F80546F8
:1039800080B9204601F0C6FE054658B9362003F03E
:1039900059F90F2E0DD82A463146362003F01EF96C
:1039A000094B1E60284608B070BD01F0E7FD4000DD
:1039B000D3E70125F6E700BF003802402049012087
:1039C0000010004040420F001C00002007B5064BCD
:1039D00002A91B6821F8020D0122044803F0D9FE58
:1039E00003B05DF804FB00BF14000020C4490120AF
:1039F00008B52DED028BDFED078A9FED078AF0EE0B
:103A0000680AB0EE480A01F087FA642006F0C7FAA7
:103A1000F5E700BF000000009A99193E30B595B057
:103A20003022002108A821F000F81422002103A868
:103A300020F0FBFF00241E4B01941A6C42F08052D0
:103A40001A641B6C03F080530193019B194B029481
:103A50001A6842F440421A601B6803F44043029320
:103A60000122029B4FF48033CDE9082302254FF455
:103A700080030821CDE90E534FF4B473CDE9101340
:103A800008A804231393129501F000FB01F06CFACF
:103A90000F23CDE903354FF4A0504FF48053CDE907
:103AA0000603052103A8059401F0CAFC15B030BD3A
:103AB00000380240007000402DE980489FB000248B
:103AC000C74D04F091FBFFF7A9FF1422002111A8B4
:103AD00020F0ABFF02942B6BC24843F010032B6322
:103AE0002B6B03F010030293029B03942B6B43F0A8
:103AF00020032B632B6B03F020030393039B04949D
:103B00002B6B43F080032B632B6B03F08003049338
:103B1000049B05942B6B43F004032B632B6B03F086
:103B200004030593059B06942B6B43F001032B6361
:103B30002B6B03F001030693069B07942B6B43F05A
:103B400002032B632B6B03F002030793079B08947C
:103B50002B6B43F040032B632B6B03F04003089364
:103B6000089B09942B6B43F008032B632B6B03F02A
:103B70000803099322463C21099B03F0C7FC224617
:103B80000E219948012603F0C1FC4FF003083C23A5
:103B900011A99448CDF85080CDE911364FF00A0AAA
:103BA000139403F0BFFB11A98F484FF0020B4FF0A5
:103BB0000409CDE91348CDE911A603F0B3FB11A91F
:103BC0008948CDF850B04FF48817CDE91196139479
:103BD00003F0A8FB11A985481196CDE9127B03F0EB
:103BE000A1FB302211A980481394CDE9112703F0DD
:103BF00099FB22460521062002F0F0FF062003F083
:103C000021F822460521504602F0E8FF504603F015
:103C100019F805212246172002F0E0FF172003F0D3
:103C200011F87348734A744F026004F04BFC734BF5
:103C3000734A3C62C7E9003238464FF48042C7E914
:103C40000424C7E90244C7E9064402F065FB1021D9
:103C5000384602F029FF2146384602F047FF6948FE
:103C600069494FF48272C0E900124FF400771822BC
:103C7000C0E90672C0E90244644FC0E90444C0E9E7
:103C80000844C0E90A4A03F025FD614ACDF844B072
:103C9000C7E900264FF4C072C7E906244FF400625A
:103CA000C7E908244FF400524FF0100C4023BA62C9
:103CB00011A907223846C7E904C3CDE91428C7E98A
:103CC0000249CDE91229CDE916BB01F089F9082393
:103CD0004FF6FF720DA93846CDE90E360A940D96BF
:103CE000109401F09DF9304604F0AAFA08234FF62B
:103CF000FF720DA93846CDF834B0CDE90E361094D8
:103D000001F08EF908234FF6FF720DA93846CDF861
:103D10003480CDE90E39109401F082F94FF40C7221
:103D20000A920A9A109208234FF6FF720DA938469C
:103D3000CDE90E36CDF8349001F072F940F26A51B7
:103D4000384601F08BF92146342211A820F06DFE8F
:103D5000304F314A3C61C7E900240922C7E90526F2
:103D60001D2240F20D1EC7E9072840F24312C7E9A1
:103D700009E240F2171340F24712C7E90B32C7E9D4
:103D80000244BC8687F83640384604F007F9FF2025
:103D90004FF4806CF0214FF4A072CDE91604052099
:103DA000CDE918C0CDE9142BCDE91214CDE91A41A3
:103DB0001C9211A9224638461194184FADF8744050
:103DC0008DF8764004F0C7F9154A3A6012689047BA
:103DD0003A68144FD2689047134AC7E90A4B25E066
:103DE000003802400010024000080240000002407B
:103DF000AC4A01200030024070490120005C0040C4
:103E0000A0860100C449012000500140C84C012097
:103E1000400100A0004B012000680140303100202B
:103E20004C000020404C012000B00240C7E90C4487
:103E30003846C7E90024C7E902B403F000FF314661
:103E4000384603F0BDFFDFF8CCE29848984F046194
:103E50004FF4E133C0E900E30C23C0E90534C0E9C5
:103E60000244C46103F030F81C22214612A820F05D
:103E7000DCFD904BBC604FF6FF7B11A93846C7E9CB
:103E80000034C7E903B4BC61CDF84480CDF8548058
:103E9000CDF86480CDE90D441396179601F030FEFD
:103EA0000DA93846CDE90D4402F042FE102221460C
:103EB0000DA8814F20F0B9FD1C22214611A8CDE9A3
:103EC0000B4420F0B2FD4FF08043C7E90034384680
:103ED00041F29313C7E90334BC60BC6101F0B8FD43
:103EE0004FF480530DA938460D9301F009FF384671
:103EF00001F0DAFD0BA93846CDE90B4402F018FEBB
:103F00006023224611A9384611930193CDE912444A
:103F1000159401F083FE4A4611A9384601F07EFE51
:103F2000384600F037FD654F1C22214612A820F0CC
:103F30007CFD634A3C6111A93846C7E90024C7E902
:103F4000024BBC61CDF84480CDF85480CDF864803C
:103F5000CDE90D441396179601F0D2FD0DA9384610
:103F6000CDE90D44574FDFF8B08102F0E1FD214665
:103F70001C2211A820F059FD534A3C613846C7E97C
:103F80000024C7E9024BBC6101F08EFD019B139434
:103F9000224611A93846CDE91134159401F03EFEB0
:103FA0004A4611A9384601F039FE384600F0F2FCC5
:103FB000464F1022214611A820F037FDB323C7E950
:103FC0000083384640F2E733C7E90334CDE90D44B6
:103FD000BC60C7E9054401F03BFD4FF4805311A9D3
:103FE0003846119301F08CFE0DA93846CDE90D44F9
:103FF00002F09EFD04F077FA04F074FA0D942B6B36
:10400000334843F040032B632B6B159403F04003BC
:104010000D934FF4C04511A90D9BCDE91344CDE993
:10402000115603F07FF922462946294803F06EFA1B
:10403000FFF7AAFA00F0E2FE00F0D0F900F0CCFDA4
:1040400000F076FFFFF7BAF91420FFF7F5F905F055
:1040500027FF22464021504606F064F81D4B1E4AB9
:10406000186021461D4805F051FF1D4B1D4A186080
:1040700021461D4805F04AFF1C4B1D4A1860214689
:104080001C4805F043FF1C4B1C4A186021461C4885
:1040900005F03CFF1B4B1C4A186021461B4805F0ED
:1040A00035FF1B4B186005F00DFFFEE7644A012049
:1040B000B44A012000040040804C01201C4A012029
:1040C00000080040F44B012000400140AC4B0120AF
:1040D00000180240FC4C01203C7A0208F13900082B
:1040E0006C490120D0790208F58400083C4C01207D
:1040F000187A02081D390008A84B0120F47902083B
:10410000A534000868490120AC790208E1420008A2
:10411000FC4A012000480040000001407047704701
:1041200010B586B006AC074B04F8012D1B6802934E
:1041300001230A46CDE900430146034802F0B4FAE0
:1041400006B010BD10000020704901207FB506AAFE
:10415000002302F8013D084B1B6802930123CDE9BF
:1041600000230A460146054802F032FB9DF817007D
:1041700007B05DF804FB00BF10000020704901206B
:104180001FB5084C24680092CDE901340A4601238A
:104190000146054802F01CFB003018BF012004B0A6
:1041A00010BD00BF100000207049012004F048B885
:1041B00010B5064C00222046042103F0A7F9204642
:1041C00001220421BDE8104003F0A0B9000802401C
:1041D00038B50B4C054601224FF40051094803F055
:1041E00095F900220421204603F090F92846FFF7B4
:1041F000EDFB204601220421BDE8384003F086B9DA
:1042000000080240000C024038B50B4C0546002265
:104210004FF40051094803F079F9002204212046A7
:1042200003F074F92846FFF7D1FB20460122042150
:10423000BDE8384003F06AB900080240000C0240B3
:10424000F7B5144C144D07460E46204600220421B3
:1042500003F05CF900224FF40051284603F056F9B0
:104260003846FFF7B3FB0D4B0D481B68324601A9DA
:1042700003F041FC284601224FF40051019E03F057
:1042800045F920460122042103F040F9304603B0ED
:10429000F0BD00BF00080240000C024014000020E6
:1042A000C449012003F0CCBF102805D1044B1B6882
:1042B00000225A62FFF7ECB82028FBD1014BF6E749
:1042C000B44A01201C4A01200268034B9A4201D1E2
:1042D00003F0A4BF704700BF00100040704700000B
:1042E00000B50F4C0F4D104E91B04FF0FF33002230
:1042F0006946206805F084FF0028F6D12946684603
:10430000FCF764FD10B900F08BFDEEE7314668461E
:10431000FCF75CFD0028E8D100F090FDE5E700BF68
:10432000FC4C01209C7A0208A97A020810B58CB0D6
:1043300003AB009304AA02AB0D49044620F062FFD0
:10434000032808D10B4800231A4604A9006805F089
:1043500025FF0CB010BD08492046FCF737FD0028AA
:10436000F7D1064B1A78002AF3D101221A70F0E730
:10437000B77A0208FC4C0120CC7A0208852C002078
:104380007047FEE7FEE7FEE7FEE77047012003F017
:10439000CBB8102003F0C8B8202003F0C5B8000047
:1043A000014801F051BA00BFAC4B0120014802F0B6
:1043B0003FBE00BF644A0120014801F045BA00BF7A
:1043C00020490120014803F065BE00BF004B0120D9
:1043D000014803F064BC00BF404C012070B50D4C97
:1043E0000D4E0021204601F0A1FD002202213046A1
:1043F00003F08CF8236800255D630421204601F05A
:1044000095FD2A460821304603F080F823689D6315
:1044100070BD00BF804C012000080240012838B563
:1044200005460C461CD864291AD8124B1B5C13B1E4
:10443000B2FA82F25209104B33F815100F4B53F8B1
:10444000250003F063F80E4B0E4A1B6852F8252036
:10445000D96A01FB04446421B4FBF1F10AB9596340
:1044600038BD042A01D19963FAE7082A0CBFD96341
:104470001964F5E7E07A0208D47A0208D87A0208CB
:10448000804C0120E47A020882B00E4B0022009298
:10449000596C41F480415964596C01F48041009198
:1044A00000990192196C41F0805119641B6C03F062
:1044B00080530193019B0F216FF0010002B002F0C5
:1044C0008DBB00BF003802400268094B9A4282B09F
:1044D0000BD100230193074B1A6B42F480521A63ED
:1044E0001B6B03F480530193019B02B0704700BF24
:1044F000003002400038024007B50F4B02689A4274
:1045000016D10022A3F5F0430192196B41F400018A
:1045100019631B6B03F40003019305215A20019BCF
:1045200002F05CFB5A2003B05DF804EB02F08ABB9A
:1045300003B05DF804FB00BF00B002402DE9F0437A
:10454000044689B01422002103A820F06EFA2268E4
:10455000244B9A4243D1244C244800250095236BD8
:1045600043F004032363236B03F004030093009BD5
:104570000195236B43F001032363236B03F00103D5
:104580000193019B4FF012094FF400734FF00108A3
:104590000327042603A9CDE90339CDE9058707964A
:1045A00002F0C0FE4FF4807303A911480796CDE9CD
:1045B0000339CDE9058702F0B5FE0295236C43F47B
:1045C00000032364236C03F400030293029B236A19
:1045D00043F400032362236A23F40003236209B037
:1045E000BDE8F083005C0040003802400008024053
:1045F00000000240F0B599B004461422002107A83B
:1046000020F013FA30220DEB0200002120F00DFA09
:1046100022685E4B9A4240F0B78008230C93C02377
:104620001093042312930CA84FF40033159303F056
:104630001BFE08B1FFF752FE554B5648002400946C
:104640005A6C42F080625A645A6C02F080620092A6
:10465000009A01941A6B42F020021A631A6B02F05E
:1046600020020192019A02941A6B42F001021A632D
:104670001A6B02F001020292029A03941A6B42F042
:1046800002021A631A6B02F002020392039A049464
:104690001A6B42F040021A631A6B02F04002049255
:1046A000049A05941A6B42F004021A631A6B02F022
:1046B00004020592059A06941A6B42F008021A63E6
:1046C0001B6B03F00803069302250E26069B0B9630
:1046D0004FF4806307A9CDE90735CDE9094502F01C
:1046E00021FE41F6580307A92B480B96CDE9073563
:1046F0000927CDE9094502F015FE032307A927483C
:104700000B97CDE90735CDE9094502F00BFE4FF4D3
:10471000706307A921480B96CDE90735CDE9094516
:1047200002F000FE4FF40C6307A91D480B96CDE97B
:104730000735CDE9094502F0F5FDC02307A9194861
:104740000B96CDE90735CDE9094502F0EBFD0823CD
:1047500007A915480B96CDE90735CDE9094502F0C3
:10476000E1FD4FF4A05307A90D480B97CDE907359C
:10477000CDE9094502F0D6FD58202246052102F078
:104780002DFA582002F05EFA19B0F0BD0068014021
:1047900000380240001402400000024000040240C1
:1047A0000018024000080240000C024010B5044608
:1047B00088B01422002103A820F037F92268144B96
:1047C0009A4223D103F56843002101915A6C1148A4
:1047D00042F480125A645A6C02F480120192019AD7
:1047E00002911A6B42F020021A631B6B03F0200344
:1047F0000293029B4FF4607202230321CDE903234D
:104800000523CDE9061303A902F08CFD08B010BD05
:10481000005001400014024007B5164A0368934255
:1048200015D10022144B0092596C41F001015964DA
:104830005B6C03F00103009305211920009B02F03B
:10484000CDF9192003B05DF804EB02F0FBB9B3F128
:10485000804F0BD100230193074B1A6C42F00102E9
:104860001A641B6C03F001030193019B03B05DF814
:1048700004FB00BF000001400038024070B5142264
:104880008AB0044600210DEB020020F0CEF8236828
:104890002E4A934236D12E4B2E48002500951A6C95
:1048A00042F002021A641A6C02F002020092009AAC
:1048B00001951A6B42F001021A631A6B02F00102B1
:1048C0000192019A02951A6B42F002021A631B6B65
:1048D00003F0020302930224029B0326802305A90E
:1048E000CDE90534CDE9086402F01CFD1023CDE9C3
:1048F0000534CDE907561848099405A902F012FDC0
:104900000AB070BD154A9342FAD1114B14480021E8
:1049100003911A6C42F004021A641A6C02F0040249
:104920000392039A04911A6B42F008021A631B6BFC
:1049300003F0080304934FF44052049B0223CDE993
:1049400005230322CDE9082305A9D7E70004004089
:10495000003802400000024000040240000800400D
:10496000000C02400268094B9A4282B00BD100232E
:104970000193074B5A6C42F480325A645B6C03F427
:1049800080330193019B02B0704700BF004001409B
:1049900000380240F0B514228BB0044600210DEB24
:1049A000020020F042F82368B3F1804F2ED103F5C6
:1049B0000E33002401941A6B2B4842F001021A6353
:1049C0001A6B02F001020192019A02941A6B42F0F2
:1049D00002021A631B6B03F002030293029B02277D
:1049E00020230326012505A9CDE90537CDE9086572
:1049F00002F098FC0823CDE90537CDE907461B48AE
:104A0000099505A902F08EFC0BB0F0BD184A93423F
:104A1000FAD1184B1848002503951A6B42F0100282
:104A20001A631A6B02F010020392039A04951A6B30
:104A300042F001021A631B6B03F00103049302248A
:104A4000049B08944023032605A9CDE90534099663
:104A500002F068FC0423CDE90534CDE9075409963A
:104A600005A90148CEE700BF000002400004024053
:104A700000400140003802400010024010B50446DA
:104A800088B01422002103A81FF0CFFF2268184B22
:104A90009A422BD103F5F833002401941A6C15487F
:104AA00042F480221A641A6C02F480220192019A64
:104AB00002941A6B42F004021A631B6B03F00403A6
:104AC00002934FF44062029B0223CDE903230321AA
:104AD0000723CDE9061303A902F024FC2720224670
:104AE000052102F07BF8272002F0ACF808B010BDD9
:104AF00000480040000802402DE9F04186B0142231
:104B0000002101A81FF091FF2B4B1C68002C4FD1F6
:104B10004FF00108C3F80080284B00949A6B284896
:104B200042EA08029A639B6B03EA08030093022798
:104B300003260C25009B01A94FF63F03CDE9013761
:104B4000CDE9046502F0EEFB01A91E480595CDE90B
:104B50000187CDE9034602F0E5FB48F2331301A9D2
:104B600019480595CDE90137CDE9034602F0DAFB96
:104B70004FF6837301A915480595CDE90137CDE9B5
:104B8000034602F0CFFB4CF2037301A910480595D0
:104B9000CDE90137CDE9034602F0C4FB602301A94A
:104BA0000C480595CDE90137CDE9034602F0BAFB83
:104BB00006B0BDE8F08100BF34310020003802406B
:104BC0000014024000080240001802400010024099
:104BD000000C02400004024040220249024801F059
:104BE00023BD00BF383100207049012013B50446B1
:104BF000FCF7F6F84FF47A730093224683B2102143
:104C0000024801F039FC02B010BD00BF704901201C
:104C100000B591B00223009300220423054903A8A4
:104C200020F0D0FA03AA0E210120FEF70BFD11B0EF
:104C30005DF804FBEC7A020870B52DED068B84B0AC
:104C400005F061F907EE900A9FED519A9FED51AA88
:104C5000514EB8EE677AF0EE4A9AC7EE097AFCEE4A
:104C6000E77A17EE905A05F047F904464B4B96ED5C
:104C7000008AD3ED008A03A902A8FEF7E7FB484BA0
:104C80009DED027AD3ED016AD3ED007A38EE477AD2
:104C9000B1EE008A77EE666AE7EE0A7A86EE8A6AF5
:104CA000C3ED007A67EE887AF2EE0E6AE7EE267AB6
:104CB00083ED017A9FED3B7AE6EE077AF0EE485AF3
:104CC000F4EEC97AF1EE10FAB0EE666AF0EE476AD9
:104CD00058DC9FED357AF4EE477AF1EE10FA48BFD2
:104CE000F0EE477A314B9DED037A93ED015A93ED47
:104CF000008A38EEC77A37EE455AA7EE298AC5EE04
:104D0000294A83ED008A28EE258A83ED017AA7EEF1
:104D1000068AA4EEA68AB4EEC98AF1EE10FA34DC53
:104D20009FED217AB4EE478AF1EE10FA48BFB0EE5B
:104D3000478AF5EEC07AF0EEE77AFCEEE77AF1EE1C
:104D400010FACDED017AB4BF012200229DF80410C3
:104D50000020FFF763FBB5EEC08AB0EEC88AFCEE18
:104D6000C87AF1EE10FACDED017AB4BF012200222B
:104D70009DF8041001202C44FFF750FB204605F05D
:104D80001AF973E7DFED027AACE79FED018AD0E70D
:104D90000000C8420AD7233C883100208C31002013
:104DA00078310020000000000000C8C280310020DF
:104DB00000B58BB02022002102A81FF036FE074B61
:104DC00001934FF400722823CDE90623002101AAA4
:104DD000034805F09BF80BB05DF804FBFE7A02086F
:104DE000394C0008034B83ED000A034BC3ED000A66
:104DF000704700BF883100208C31002010B5074C6F
:104E00000021204601F092F80421204601F08EF89E
:104E1000236840F2DC525A639A6310BDB44A012001
:104E2000054B1B6840F24C425A6340F26C729A6325
:104E300042F2107005F0B3B8B44A0120054B1B686C
:104E40004FF4AF625A634FF4C8629A6342F2107033
:104E500005F0A5B8B44A0120F8B52DED028B05F098
:104E600052F807EE900A9FED277A274E274F9FEDC5
:104E7000288AF8EE676AC6EE877AFCEEE77A17EEC4
:104E8000905A05F039F8044696ED000AD7ED007AFD
:104E9000B6EE007AB4EEC70AF1EE10FA2BDCBEEEE5
:104EA000007AB4EE470AF1EE10FA48BFB0EE470AB6
:104EB000B7EE007AF4EEC77AF1EE10FA1EDCBFEE20
:104EC000007AF4EE477AF1EE10FA48BFF0EE477A36
:104ED000F0EE400AE7EE880A2C44A7EEC80A9FEDE0
:104EE0000D7AC0EE870A80EE070AFFF77BFF2046A7
:104EF00005F061F8C8E7B0EE470AD9E7F0EE477A67
:104F0000E6E700BF0000C842903100209431002045
:104F1000C3F5A83D6210583F034B83ED000A034BD5
:104F2000C3ED000A704700BF90310020943100208B
:104F300010B520248AB0FFF73BFF2246002102A8CB
:104F40001FF073FD064B019301AA4FF4007300217B
:104F50000448CDE9063404F0D9FF0AB010BD00BF03
:104F6000077B0208594E000837B500230193184B00
:104F7000184C1A6C42F080521A641B6C03F0805378
:104F80000193019B144B01221A6003F053F905466B
:104F90006368DA030BD5114B0E4C01221A6003F043
:104FA00049F9054663689B030AD5002006E003F033
:104FB00041F9401BB0F57A7FEAD9032003B030BD38
:104FC00003F038F9401BB0F57A7FEBD9F5E700BF65
:104FD000003802400070004040000E4244000E4283
:104FE00038B50D460446C8B190F82C3003F0FF02E6
:104FF0001BB980F82D20FFF77FFD022384F82C30A9
:10500000211D206801F02CFE62682068294601F00D
:105010005BFE012384F82C30002038BD0120FCE722
:1050200070B5054690F82C00C0B202280E4612D08A
:1050300000F0FB04012C0FD1022385F82C302868E6
:1050400001F084FE3368022B06BF052385F82C305F
:1050500085F82C40002070BD0120FCE738B50446DF
:1050600090F82C00C0B202280DD094F82C50EDB26C
:10507000012D09D1022384F82C30206801F08AFE2A
:1050800084F82C50002038BD0120FCE72DE9F341C5
:10509000044608B9012041E00368DD0710D4236805
:1050A00098075AD423681A0700F19C8023685B078D
:1050B00000F1BA80A069002840F01C8100202DE09A
:1050C000A44B9A6802F00C02042A07D09A6802F0F6
:1050D0000C02082A0AD15B68590207D59D4B1B6850
:1050E0009A03DCD56368002BD9D1D3E76268994B6A
:1050F000B2F5803F15D11A6842F480321A606368B5
:10510000F3B103F097F8934D06462B689B03C6D482
:1051100003F090F8801B6428F7D9032002B0BDE8A3
:10512000F081B2F5A02F1A6803D142F480221A60F0
:10513000E1E722F480321A601A6822F48022DDE767
:1051400003F078F8834D06462B689F03A7D503F03C
:1051500071F8801B6428F7D9DFE77E4B9A6812F05C
:105160000C0F07D09A6802F00C02082A11D15B6874
:105170005E020ED4774B1A68950702D5E268012AC1
:1051800088D11A68216922F0F80242EAC1021A6045
:1051900088E7E268704BB2B101221A6003F04AF866
:1051A0006C4D06462B68980707D52B68226923F0BB
:1051B000F80343EAC2032B6074E703F03BF8801B5B
:1051C0000228EFD9A9E71A6003F034F8614D0646CA
:1051D0002B6899077FF566AF03F02CF8801B022837
:1051E000F6D99AE762695D4B7AB101221A6003F041
:1051F00021F8584D06466B6F9F073FF557AF03F0F8
:1052000019F8801B0228F6D987E71A6003F012F814
:10521000504D06466B6F98077FF548AF03F00AF8CC
:10522000801B0228F6D978E74A4B1A6C12F080529C
:105230002BD101921A6C42F080521A641B6C03F05D
:1052400080530193019B0126454D2B68D9051ED53E
:10525000A268404B012A2AD11A6F42F001021A6754
:10526000A368002B37D002F0E5FF3A4D074641F224
:1052700088382B6F9B0728D5002E3FF41BAF354A8B
:10528000136C23F08053136414E70026DCE72B68CB
:1052900043F480732B6002F0CDFF07462B68DA05DC
:1052A000D6D402F0C7FFC01B0228F7D935E7052A7C
:1052B0001A6F03D142F004021A67CDE722F001020F
:1052C0001A671A6F22F00402C9E702F0B3FFC01B8D
:1052D0004045CED921E702F0ADFF1E4D074641F211
:1052E00088382B6F9807C7D502F0A4FFC01B404534
:1052F000F7D912E7174DAB6803F00C03082B46D023
:10530000184E00230228336034D102F093FF074681
:105310002B68990128D4D4E907321343626A43EA1F
:105320008213E26A43EA0263A26A0A4C5208013A13
:1053300043EA02436B600123336002F07BFF0546C2
:1053400023689A013FF5BAAE02F074FF401B0228B1
:10535000F6D9E2E60038024000004742800E47429C
:10536000007000406000474202F064FFC01B02284A
:10537000CED9D2E602F05EFF04462B689B017FF592
:105380009DAE02F057FF001B0228F6D9C5E60128A2
:105390003FF4C4AE6B68E26903F4800191427FF48C
:1053A00079AE216A03F03F028A427FF473AE616AEC
:1053B00047F6C0721A40B2EB811F7FF46BAEA26A4F
:1053C000520803F44031013AB1EB024F7FF462AE70
:1053D000E26A03F07063B3EB026F14BF0120002098
:1053E0009CE600BF08B513498B6803F00C03042B3F
:1053F00003D0082B03D0104800E0104808BD4A68CD
:105400004B68496813F4800314BF0C480A48C1F381
:10541000881118BF002302F03F02A1FB0001FBF737
:1054200055FB044B5B68C3F3014301335B00B0FBE6
:10543000F3F0E3E7003802400024F40000127A00A1
:105440002DE9F0410D46044610B90120BDE8F08178
:10545000454B1A6802F00F028A422AD323689E073E
:105460002FD42368D90743D43F4B1A6802F00F02A8
:10547000AA4268D823685A076ED423681B0707D549
:105480003A4A2169936823F4604343EAC103936075
:10549000FFF7A8FF354B364A9B68C3F30313D35C71
:1054A000D840344B1860344B1868FEF73FFA0020A0
:1054B000CCE7CAB21A701B6803F00F038B42C4D149
:1054C000CCE7580741BF294A936843F4E0539360FF
:1054D0002368264A13F0080F1EBF936843F4604305
:1054E00093609368A16823F0F0030B439360B8E7DF
:1054F00062681E4B012A1CD11B6813F4003FA4D024
:105500001A4EB36823F003031343B36002F092FE14
:1055100041F288380746B368626803F00C03B3EBC6
:10552000820FA1D002F086FEC01B4045F3D90320B4
:105530008CE7911E01291B6802D813F0007FDEE77B
:1055400013F0020FDBE7EAB21A701B6803F00F03D7
:10555000AB427FF47AAF8DE7044AE168936823F4A5
:10556000E0530B43936088E7003C02400038024060
:105570007D7902080C0000201C000020044B054A25
:105580009B68C3F38223D35C034A1068D8407047FA
:10559000003802408D7902080C000020044B054AB7
:1055A0009B68C3F34233D35C034A1068D84070470A
:1055B000003802408D7902080C0000200F230360A0
:1055C0000B4B9A6802F0030242609A6802F0F00204
:1055D00082609A6802F4E052C2609B68DB0803F4C0
:1055E000E0530361034B1B6803F00F030B6070472C
:1055F00000380240003C0240036A026A22F00102C5
:10560000026270B5446882690D6822F073022A4311
:105610008D6823F002032B430E4DA84202D00E4E9C
:10562000B04210D1CE6823F008033343A84223F0E0
:10563000040302D0084DA84205D1D1E9055624F44F
:10564000407435432C43446082614A68426303627C
:1056500070BD00BF0000014000040140036A026AFF
:1056600022F48072026270B54468C2690D6822F04B
:1056700073022A438D6823F4007343EA0523114D16
:10568000A84203D005F58065A84214D1CD6823F463
:10569000006343EA05230B4DA84223F4806303D043
:1056A00005F58065A84206D1D1E9055624F4405499
:1056B000354344EA05144460C2614A68C263036228
:1056C00070BD00BF00000140036A026A22F48052EC
:1056D000026230B54468C2690D6822F4E64242EACB
:1056E00005228D6823F4005343EA0533084DA84290
:1056F00003D005F58065A84204D14D6924F48044A7
:1057000044EA85144460C2614A680264036230BDA1
:105710000000014090F83D30012B31D10268022396
:1057200080F83D30D36843F00103D3600368154A25
:1057300093421AD0B3F1804F17D0A2F57C42934226
:1057400013D002F5806293420FD002F5806293423B
:105750000BD002F57842934207D002F57052934283
:1057600003D0A2F59432934204D19A6802F0070262
:10577000062A03D01A6842F001021A60002070471E
:10578000012070470000014030B590F83E4090F88D
:105790003F2090F8423090F84350E4B2D2B2DBB2EE
:1057A000EDB2C1B9012C47D1012B45D1022380F8BC
:1057B0003E3080F8423003681A6A22F001021A6211
:1057C0001A6A42F001021A620268136843F0010388
:1057D0001360002030BD042911D1012A2CD1012DE4
:1057E0002AD1022380F83F3080F8433003681A6AD8
:1057F00022F010021A621A6A42F01002E3E7012C4A
:105800001AD1012A18D1012B16D1012D16D102234C
:1058100080F83E3080F83F3080F8423080F84330E6
:1058200003680029C7D01A6A22F001021A621A6AB4
:1058300042F001021A62D9E70120CBE71846C9E716
:10584000704770477047704770B50368DD681E6920
:10585000B10704460ED5AA070CD56FF002021A61F3
:105860000123037703689B699B076CD0FFF7E9FF6F
:1058700000232377710711D56A070FD523686FF0CE
:1058800004021A610223237723689B6913F4407F83
:1058900020465ED0FFF7D5FF00232377330710D5CE
:1058A00028070ED523686FF008021A6104232377B6
:1058B0002368DB699907204651D0FFF7C2FF002318
:1058C0002377F20611D5EB060FD523686FF010028F
:1058D0001A61082323772368DB6913F4407F20468D
:1058E00043D0FFF7AEFF00232377F00708D5E90781
:1058F00006D523686FF001021A612046FEF7E4FC2A
:10590000320608D52B0606D523686FF080021A618F
:10591000204601F050F9700608D5690606D52368BF
:105920006FF040021A612046FFF78DFFB20622D5C4
:10593000AB0620D523686FF020021A612046BDE82F
:10594000704001F037B9FFF77BFF2046FFF77AFF81
:105950008EE7FFF775FF2046FFF774FF9CE7FFF720
:105960006FFF2046FFF76EFFA9E7FFF769FF2046AC
:10597000FFF768FFB7E770BD334A0368904212D063
:10598000B0F1804F0FD0A2F57C4290420BD002F5CF
:105990008062904207D002F58062904203D002F507
:1059A0007842904219D14A6823F070031343264A83
:1059B000904229D0B0F1804F26D0A2F57C4290428F
:1059C00022D002F5806290421ED002F580629042A1
:1059D0001AD002F57842904216D01C4A904213D059
:1059E00002F5806290420FD002F5806290420BD0A7
:1059F000A2F59832904207D002F58062904203D01F
:105A000002F58062904203D1CA6823F440731343C5
:105A10004A6923F08003134303608B68C3620B68F9
:105A20008362094B984203D003F58063984201D109
:105A30000B690363012343610369DB0742BF036909
:105A400023F0010303617047000001400040014062
:105A500010B5044630B390F83D3003F0FF021BB997
:105A600080F83C20FEF7D8FE022384F83D30206801
:105A7000211DFFF781FF012384F84630002084F8C0
:105A80003E3084F83F3084F8403084F8413084F868
:105A9000423084F8433084F8443084F8453084F848
:105AA0003D3010BD0120FCE710B5044630B390F83E
:105AB0003D3003F0FF021BB980F83C20FEF752FF97
:105AC000022384F83D302068211DFFF755FF012394
:105AD00084F84630002084F83E3084F83F3084F863
